:020000040800F2
:1000000000000420F1260008251F0008271F000813
:10001000291F00082B1F00082D1F000800000000EA
:100020000000000000000000000000002F1F00087A
:10003000311F000800000000331F0008351F0008B2
:1000400041270008412700084127000841270008F0
:1000500041270008412700084127000841270008E0
:1000600041270008412700084127000841270008D0
:1000700041270008412700084127000841270008C0
:1000800041270008412700084127000841270008B0
:1000900041270008412700084127000841270008A0
:1000A0004127000841270008412700084127000890
:1000B0004127000841270008412700084127000880
:1000C0004127000841270008412700084127000870
:1000D0004127000841270008412700084127000860
:1000E0004127000841270008412700084127000850
:1000F0004127000841270008412700084127000840
:10010000000000004127000841270008412700089F
:1001100000000000000000004127000841270008FF
:10012000412700084127000841270008412700080F
:1001300041270008412700084127000841270008FF
:1001400041270008412700084127000841270008EF
:1001500041270008412700084127000841270008DF
:1001600041270008412700080000000000000000AF
:10017000000000000000000000000000000000007F
:10018000412700084127000800000000000000008F
:10019000412700084127000800000000000000007F
:1001A000000000000000000000000000000000004F
:1001B00000000000000000000000000041270008CF
:0401C00041270008CB
:1001D0000348044B834202D0034B03B118477047D6
:1001E0007000002070000020000000000548064953
:1001F0000B1AD90F01EBA301491002D0034B03B135
:1002000018477047700000207000002000000000B8
:1002100010B5064C237843B9FFF7DAFF044B13B14E
:100220000448AFF300800123237010BD700000204C
:10023000000000004427000808B5044B1BB1044926
:100240000448AFF30080BDE80840CFE7000000009D
:10025000740000204427000870B50D4E0D4D761B2C
:10026000B61006D00024013455F8043B9847A64246
:10027000F9D1094E094D761B02F064FAB61006D08A
:100280000024013455F8043B9847A642F9D170BDCB
:10029000242800082428000828280008242800080A
:1002A000F0B4860746D0541E002A3CD0CAB203469A
:1002B00002E014F1FF3436D303F8012B9D07F8D187
:1002C000032C29D9CDB245EA05250F2C45EA054571
:1002D00033D9A4F11006360903F1200707EB0617FE
:1002E00003F1100242E9045542E902551032BA42C4
:1002F000F8D1721C14F00C0F03EB021204F00F067D
:1003000013D0331F23F003030433134442F8045B78
:100310009342FBD106F003042CB1C9B21C4403F88C
:10032000011B9C42FBD1F0BC704734461346002CA5
:10033000F3D1F8E714460346C2E71A462646E0E73B
:100340000EB410B5044683B008B1836963B106A842
:1003500003460190059AA168204600F025FA03B0F3
:10036000BDE8104003B0704700F006F9EFE700BFAA
:100370000FB410B50B4B1C6882B00CB1A36963B10C
:1003800005A803460190049AA168204600F00CFAE3
:1003900002B0BDE8104004B07047204600F0ECF811
:1003A000EEE700BF0000002000207047014900F088
:1003B00029B900BF391200080020704770B54A1EE5
:1003C000682505FB02F50E4605F1740100F044F9BD
:1003D000044640B100210C30666005F168022160DE
:1003E000A060FFF75DFF204670BD00BF1E4B70B5DB
:1003F0001D68AB69064643B34835D5E90134013B76
:1004000005D51EE0013B5A1C04F1680419D0B4F96B
:100410000C20002AF6D10025144B6566C4E900556E
:10042000A560C4E90455A5612946E360082204F1EA
:100430005C00FFF735FFC4E90D55C4E912552046AD
:1004400070BD2C682CB12546D7E7284600F010F87F
:10045000D2E704213046FFF7B1FF044628600028A8
:10046000F1D10C233360EAE75C2700080100FFFFAD
:100470002DE9F84F334B34491A68816290424FF0AE
:100480000003C0E91233036504BF012383610546FD
:10049000FFF7ACFF68602846FFF7A8FFA860284672
:1004A000FFF7A4FF6E68E86000240423F36074661D
:1004B000C6E90044B460C6E90444B461214606F1CB
:1004C0005C000822FFF7ECFEDFF888B0AF68DFF8C9
:1004D00088A0DFF88890DFF888801C4BC6F8308051
:1004E000C6E9086BC6E90AA92146FB6008227C66BA
:1004F000C7E90044BC60C7E90444BC6107F15C0083
:10050000FFF7CEFEEE68124BC7F83080C7E9087BD4
:10051000C7E90AA92146F3607466C6E90044B460DD
:10052000C6E90444B46106F15C000822FFF7B8FE96
:100530000123C6E9086BC6E90AA9C6F83080AB6199
:10054000BDE8F88F5C270008AD0300080900010032
:10055000120002006D0E0008950E0008D50E00086E
:10056000F50E0008024B0349186800F04BB800BFB5
:100570005C27000839120008836903B978E77047DF
:10058000704700BF704700BF704700BF704700BF93
:10059000024B0349186800F00FB800BF00000020AC
:1005A000A9030008024B0349186800F005B800BF12
:1005B00000000020B90300082DE9F04110F14807C0
:1005C0001BD088460026D7E90154013D0FD4A389EA
:1005D000012B05F1FF3506D9B4F90E300133204661
:1005E00001D0C04706436B1C04F16804EFD13F689B
:1005F000002FE8D13046BDE8F0813E463046BDE8E8
:10060000F08100BF2DE9F84310F148071FD088465C
:1006100006464FF00009D7E90154013D11D4A389E2
:10062000012B05F1FF3508D9B4F90E30013321460D
:10063000304602D0C04749EA00096B1C04F1680447
:10064000EDD13F68002FE6D14846BDE8F883B946B2
:100650004846BDE8F88300BFF8B5CD1C25F003057A
:1006600008350C2D38BF0C25002D064633DBA9427A
:1006700031D82A4F01F086F93A6852B113685B1BF2
:1006800004D43FE023685B1B29D522465468002C24
:10069000F8D1796800293BD02946304600F0D4FBD8
:1006A000431C28D0C41C24F00304A04205D0211A06
:1006B000304600F0C9FB01301DD02560304601F006
:1006C00063F904F10B0020F00700231DC21A01D0CA
:1006D0001B1AA350F8BD0C2232600020F8BD0B2B72
:1006E00005D8A242636811D05360E7E7144623603F
:1006F0001C442560E2E70C233046336001F044F9E6
:100700000020F8BD0B2BF1D8536814463B60D5E7A9
:10071000304600F099FB7860BEE700BF8C000020F7
:100720009368013B002B936011DA10B49469A342E3
:1007300009DB0A2907D01368581C10601970084695
:100740005DF8044B70475DF8044B00F0D7BB1368AD
:10075000581C106019700846704700BF9BB1F8B56F
:1007600013440F4606465D1E541E01E0AC4208D0FD
:100770003A4614F8011F3046FFF7D2FF431CF5D16B
:10078000F8BD0020F8BD0020704700BF936810B589
:10079000144613B95360184610BD00F08FFD0023B6
:1007A000C4E9013310BD00BF2DE9F04F9FB08B4667
:1007B00090461C46039018B18369002B00F0B78067
:1007C000A24B9B4500F0B980A14B9B4500F0C78030
:1007D000A04B9B4504BF039BD3F80CB0BBF80C3077
:1007E000180740F1B280DBF81030002B00F0AD802C
:1007F00030238DF8323098F8003005940021202203
:100800000B918DF83120944E0127002B00F087804A
:10081000252B00F01581454603E0252B00F0A38031
:1008200025466B786C1C002BF7D1B4EB080A76D008
:100830004246534659460398FFF790FF01306ED069
:100840000B9B6A7853440B93002A68D000234FF027
:10085000FF3201340693CDE908338DF85B301C93E9
:10086000079205E0069A07FA03F313432C46069312
:100870002546052215F8011B304600F031FFAA4637
:10088000831B0028EED1069BD90644BF20228DF899
:100890005B2021781A0744BF2B228DF85B202A2980
:1008A00066D1059A1168043200290592C0F29D8034
:1008B00009916178A51C2E2973D0684C032220462B
:1008C00000F00EFF002800F08680001B069B4024ED
:1008D00004FA00F00343069305F101082978604803
:1008E0008DF83010062200F0FBFE002800F0838017
:1008F0005C4B002B72D005AB00935A465A4B0398C1
:1009000006A9AFF300808146B9F1FF3F07D00B9BEA
:100910004B440B9398F80030002B7FF479AFBBF871
:100920000C305B0618D40B981FB0BDE8F08FFFF7B2
:1009300023FE464B9B457FF447AF039BD3F804B09F
:10094000BBF80C3018073FF54EAF5946039800F03E
:100950004BFB00283FF44CAF4FF0FF30E4E7039B24
:10096000D3F808B03AE7B4EB080A3FF46FAF5FE79B
:10097000A1F13002092A88BFA2469CD8099B01E058
:100980002C460135297803EB830302EB4303A1F1E5
:100990003002092AAA46F3D92E2904F10205099347
:1009A0008BD19AF801102A292FD1059B9AF80210B1
:1009B0001A6807920433002A05930AF103050AF125
:1009C000020338DB254C032220469A4600F088FEBD
:1009D00000287FF47AAFA84655467FE7059B07338A
:1009E00023F007030833059391E7494243F00203DC
:1009F000099106935DE705AB00935A461A4B03989D
:100A000006A900F0D5F881467EE7A1F13002002367
:100A1000092A079301D915E05546697803EB83034A
:100A200002EB4303A1F13002092A05F1010AF3D9CF
:100A30000235079341E74FF0FF329A4607923CE7B1
:100A4000444603E7AA46013537E700BFA027000860
:100A50008027000860270008E0270008E827000832
:100A6000EC270008000000005D07000810B4044CEB
:100A700013460A46014620685DF8044BFFF794BE12
:100A8000000000202DE9F0470C4691460A6989686C
:100A9000DDF820808A42B8BF0A46C9F8002094F8E1
:100AA000431006461F4611B10132C9F800202368E1
:100AB00099065CD5D9F800200232C9F800202368D5
:100AC00013F0060F19461DD1E1688A1A002AD8BF13
:100AD000194617DD04F1190A002505E0E368D9F885
:100AE00000209B1AAB420CDD0123524639463046AA
:100AF000C047013005F10105F0D14FF0FF30BDE8EE
:100B0000F087216894F84330003318BF01238A0628
:100B10000AD5E1185A1C302081F84300224494F889
:100B2000451082F84310023304F14302394630463F
:100B3000C0470130E1D02368A268216903F00603B1
:100B4000042B1DD08A4226DD4FF00009521A914431
:100B50001A34002501E04D451DDA012322463946AD
:100B60003046C047013005F10105F4D1C5E713F067
:100B7000060F13D094F84330003318BF0123D3E796
:100B8000D9F80000E3688A42A3EB000323EAE37983
:100B9000DCDC002BDCDC0020BDE8F087E168D9F864
:100BA00000208A1A002AD8BF194693DCAAE700BFA2
:100BB0002DE9F0430C46097E85B06E29064617469E
:100BC0000C98984604F1430E6DD039D9732900F082
:100BD000F68044D9752900F00481782940F011810C
:100BE00078232268DFF858C284F84530016815067A
:100BF00051F8043B016040F1A180D10744BF42F0AD
:100C000020022260002B00F093801022002184F843
:100C100043106068A0600028C0F2C880216821F0FD
:100C200004012160002B40F0A380002840F0C08028
:100C30007546082A00F0AC80AEEB0503236141E065
:100C4000632900F0E5801AD8002938D0582940F0EF
:100C5000D88084F845102268DFF8E8C1C6E76F291C
:100C600000F0BF80702940F0CC802268DFF8D0C14E
:100C700042F020027823226084F84530B6E76429E8
:100C800002D0692940F0BD8022680368110603F193
:100C9000040557D5196805600B46002959DBDFF8B4
:100CA000A4C10A22B5E70368226861691D1D0560B9
:100CB00015061B6802D4500600F1BD8019600023A0
:100CC00075462361CDF800803B4603AA2146304695
:100CD000FFF7D8FE013020D02A4623693946304636
:100CE000C047013019D022680398E368920719D5EC
:100CF0001A1A002A16DD04F11909002504E0E36838
:100D000003981A1AAA420DDD01234A463946304695
:100D1000C047013005F10105F1D14FF0FF3005B0BA
:100D2000BDE8F0839842B8BF184605B0BDE8F0832F
:100D3000226822F020022260102267E7500648BF96
:100D40009BB25AE75106A5D5B3F9003005601946A4
:100D5000A3E76168A1602D200029C3F1000384F896
:100D6000430002DB22F004022260DFF8D8C00A222E
:100D7000754600E00B46B3FBF2F102FB11309342E3
:100D80001CF8000005F8010DF4D2082A7FF454AFD6
:100D90002368DB077FF550AF626823699A423FF70B
:100DA0004BAF302305F8013C013D45E7002BDFD177
:100DB0009CF8003084F8423004F1420539E70368BA
:100DC0006268191D01601D680021284600F088FC3A
:100DD000002832D0401B60602061002384F843303B
:100DE00070E72268036812F0800F03F104051AD03F
:100DF0001B6805606F290CBF08220A22DFF844C077
:100E000004E7012384F84210236104F14205E4E77A
:100E100003681A68191D0123016004F1420584F872
:100E200042202361D9E712F0400F0DBF1B68056017
:100E30001B880560DEE7198041E76068CCE700BFEA
:100E400008280008F427000838B5074C0023054699
:100E50000846236000F082FE431C00D038BD2368A2
:100E6000002BFBD02B6038BD9C00002010B50C4639
:100E7000B1F90E1000F006FE002803DB636D034499
:100E8000636510BDA38923F48053A38110BD00BF07
:100E9000002070472DE9F0411646B1F90C201F469D
:100EA000D3050C460546B1F90E1009D422F4805240
:100EB000A2813B4632462846BDE8F04100F07EB8AC
:100EC0000022022300F07EFBB4F90C20B4F90E10CE
:100ED000ECE700BF10B50C46B1F90E1000F072FB44
:100EE000A389421C0EBF23F4805343F480536065F2
:100EF000A38110BDB1F90E1000F0F6B8F8B50D469B
:100F00001446064608B1836943B3254B9C422AD058
:100F1000244B9C4229D0244B9C4208BFF468A389EF
:100F2000A269A2601A0722D5236903B32268616906
:100F3000D31AEDB299422F4629DD0133A168501C26
:100F40000139A1602060157062699A4216D0A389A8
:100F5000DB0701D50A2D11D03846F8BDFFF70CFB91
:100F60000F4B9C42D4D17468D9E7B468D7E72146C7
:100F7000304600F039F838B92369D7E721463046C2
:100F800000F05AF90028E7D04FF0FF37E4E7214698
:100F9000304600F051F90028F6D122680123CDE750
:100FA000A02700088027000860270008024B0A4697
:100FB00001461868FFF7A2BF0000002070B50D467B
:100FC000084C114606461A4628460023236000F0C6
:100FD000D3FD431C00D070BD2368002BFBD03360D1
:100FE00070BD00BF9C0000203B4B70B51D680646DD
:100FF0000C460DB1AB69DBB1384B9C421ED0384B6F
:101000009C424AD0374B9C4208BFEC68B4F90C2094
:1010100093B2190718D5206908B313F001022CD038
:10102000636900225B42A361A26060B3002070BDCF
:101030002846FFF7A1FA294B9C42E0D16C68B4F92D
:101040000C2093B21907E6D4DD063CD5580726D408
:10105000206942F00803A3819BB20028DDD103F48C
:101060002072B2F5007FD8D03046214600F0EEFA6B
:10107000A389206913F00102D2D1990758BF626990
:10108000A2600028D2D1B4F90C301A06CFD543F0B3
:101090004003A3814FF0FF3070BDAC68B6E7616BD1
:1010A00051B104F14403994204D0304600F06EFC83
:1010B000B4F90C200023636300232069636022F0ED
:1010C00024022060C5E742F04002092333604FF05C
:1010D000FF30A28170BD00BF00000020A0270008E3
:1010E000802700086027000838B5074C0023054614
:1010F0000846236000F00AFD431C00D038BD236879
:10110000002BFBD02B6038BD9C0000208B891A0778
:101110002DE9F0410C46804641D44A68002A59DD49
:10112000E66A002E53D00022D8F80050216AC8F891
:10113000002013F4805251D101234046B047431C94
:101140005FD0A389E66A216A5F0705D56268636B91
:10115000801A0BB1236CC01A024600234046B047E8
:10116000461C45D1D8F80030B4F90C20002B55D0DE
:101170001D2B01D0162B5AD123690022C4E900325D
:10118000616BC8F8005011B304F14403994202D0D6
:10119000404600F0FBFB00206063BDE8F0810E6973
:1011A000AEB10D680E6099070CBF63690023AD1BDB
:1011B000A3600AE02B463246A76A216A4046B84738
:1011C0000028A5EB000506440ADD002DF2DC002016
:1011D000BDE8F0810A6C002AA2DCF8E7606DB3E795
:1011E000A38943F04003A3814FF0FF30BDE8F081B5
:1011F0002269A389226000226260DA04C0D560659A
:10120000BEE7D8F80030002B9BD01D2B0CD0162B3E
:101210000AD0A38943F04003A381D9E72169C4E937
:101220000013D304ACD5EAE7C8F80050CFE742F08A
:101230004002A281CCE700BF0B6923B310B504467E
:1012400082B008B18369BBB1104B994212D0104BE8
:10125000994216D00F4B994208BFE168B1F90C30A2
:101260002BB1204602B0BDE81040FFF74FBF002071
:1012700002B010BD6168F1E70191FFF77DF90199B6
:10128000E2E7A168EAE70020704700BFA027000856
:10129000802700086027000820B1054B0146186828
:1012A000FFF7CABF034B04491868FFF7ABB900BF8B
:1012B000000000205C270008391200089368002B0A
:1012C00000F002812DE9F04FB1F90C309BB20C46D1
:1012D000190783B08246904635D522699AB313F038
:1012E0000202D8F800603DD00027D4F828B0D4F826
:1012F00020C0DFF8CC923D464D452B463A4628BFEC
:101300004B4661465046D5B1D847002840F3D280BD
:10131000D8F808301B1A07442D1AC8F80830002BDB
:1013200000F0B780D4F820C0D4F828B04D452B4643
:101330003A4628BF4B4661465046002DE4D1D6E9D7
:1013400000750836D8E721465046FFF74DFE0028C5
:1013500040F03081B4F90C30D8F800609BB213F043
:101360000202C1D113F0010940F0B080A7682068E3
:101370004D46002D54D09A0540F1BC80AF42BB468B
:1013800000F2E78013F4906F2FD0D4E9041707EB35
:101390004707A0EB010B07EBD777681C7F10584479
:1013A000B8423A4684BF07463A465B0540F1E980B9
:1013B00011465046FFF750F9002800F0F5805A46D4
:1013C0002169019000F0DCF9A289019B22F490626E
:1013D00042F08002A281A7EB0B0203EB0B006761D6
:1013E00023612060A2602F46AB465A46494600F072
:1013F00061FAA2682368D21B5B442F46A260236077
:101400000025D8F80830DB1BB944C8F80830002B99
:101410003FD0B4F90C30A76820689BB2002DAAD148
:10142000D6E900950836A4E70BF1080353E90267F3
:101430009B460833002FF9D03A460A21304600F087
:101440004FF9002853D00130A0EB06094B46D4E9F0
:1014500004122068BB4228BF3B46884203D9A568D6
:101460001544AB4219DC9A427DDC1346A56A216A19
:1014700032465046A847051E1CDDB9EB05096BD066
:101480000120D8F808305B1B2E447F1BC8F80830B9
:1014900013BB002003B0BDE8F08F31462A4600F0B0
:1014A00009FA23682B44236021465046FFF7C4FE07
:1014B0000028E2D0B4F90C3043F040034FF0FF3085
:1014C000A38103B0BDE8F08F0020704733469146FA
:1014D000104617464E469B46002FA5D00028B5D192
:1014E0003A460A21304600F0FBF80028ABD17B1CBD
:1014F0009946ACE72369834215D36169A94212D8A2
:101500002E4BA76A9D4294BF2B466FF000434A467C
:1015100093FBF1F3504601FB03F3216AB847071E22
:10152000C8DDED1B6DE7AF4228BF2F463A4649465E
:1015300000F0C0F9A3682268DB1B3A44A360226074
:10154000002BEED121465046FFF776FE0028E8D06A
:10155000B0E72F46AB4648E721465046FFF76CFE02
:1015600000288ED0A6E71A463146019300F0A2F972
:10157000019BA1682268C91A1A44A16022601D4615
:101580007BE7504600F058FA034600287FF423AF6B
:101590002169504600F0FAF9B4F90C300C2223F01E
:1015A0008003CAF8002087E70C23CAF80030B4F99A
:1015B0000C3081E74FF0FF306CE700BFFEFFFF7F8C
:1015C00000FCFF7F70B50D46084C114606461A46D2
:1015D00028460023236000F0B1FA431C00D070BD00
:1015E0002368002BFBD0336070BD00BF9C0000203F
:1015F00070B50C46B1F90E10002996B016461D467E
:1016000013DB6A4600F054FA00280EDB019A02F45C
:101610007042A2F50052B2FA82F252094FF480638E
:1016200000202A60336016B070BDA38900221B061B
:101630002A6004D540230020336016B070BD4FF4FB
:1016400080630020336016B070BD00BF8A899207A6
:101650000B4606D501F1470201211A60C3E90421B6
:10166000704770B582B001AB6A460C460646FFF77C
:10167000BFFF009905463046FEF7EEFFB4F90C3087
:1016800070B11649B162019A0099206043F080035D
:10169000A381C4E904018AB92B43A38102B070BDC0
:1016A0009A05FBD423F0030304F1470243F002033D
:1016B0000121A3812260C4E90421EFE73046B4F997
:1016C0000E1000F009FA10B9B4F90C30E4E7A38960
:1016D00023F0030343F001031BB2DDE7AD03000871
:1016E00001F0FF01102A2BDB10F0070F08D010F8D3
:1016F000013B013A8B422DD010F0070F42B3F6D1D7
:10170000F0B441EA012141EA014122F007047FF0EF
:1017100000070023F0E80256083C85EA010586EA46
:10172000010685FA47F5A3FA87F586FA47F6A5FA82
:1017300087F68EB9EED1F0BC01F0FF0102F007028E
:1017400032B110F8013B013A83EA010313B1F8D139
:101750000020704701387047002D06BF354603381A
:10176000073815F0010F07D1013015F4807F02BF53
:10177000013015F4C03F0130F0BC0138704700BFA4
:10178000844641EA000313F003036DD1403A41D38C
:1017900051F8043B40F8043B51F8043B40F8043B4B
:1017A00051F8043B40F8043B51F8043B40F8043B3B
:1017B00051F8043B40F8043B51F8043B40F8043B2B
:1017C00051F8043B40F8043B51F8043B40F8043B1B
:1017D00051F8043B40F8043B51F8043B40F8043B0B
:1017E00051F8043B40F8043B51F8043B40F8043BFB
:1017F00051F8043B40F8043B51F8043B40F8043BEB
:1018000051F8043B40F8043B51F8043B40F8043BDA
:10181000403ABDD2303211D351F8043B40F8043B7A
:1018200051F8043B40F8043B51F8043B40F8043BBA
:1018300051F8043B40F8043B103AEDD20C3205D38A
:1018400051F8043B40F8043B043AF9D2043208D082
:10185000D2071CBF11F8013B00F8013B01D30B88F4
:1018600003806046704700BF082A13D38B078DD0D2
:1018700010F003038AD0C3F10403D21ADB071CBFA4
:1018800011F8013B00F8013B80D331F8023B20F80E
:10189000023B7BE7043AD9D3013A11F8013B00F847
:1018A000013BF9D20B7803704B7843708B788370CF
:1018B000604670478842F0B40DD98B1883420AD92C
:1018C000841832B1224613F8014D02F8014D9942B5
:1018D000F9D1F0BC70470F2A0ED80346541E002AD7
:1018E000F7D001340C44013B11F8012B03F8012F10
:1018F000A142F9D1F0BC704740EA01039B073BD1FC
:10190000A2F110073F0901F1200606EB071601F1CD
:10191000100300F1100453F8105C44F8105C53F805
:101920000C5C44F80C5C53F8085C44F8085C53F811
:10193000045C44F8045C1033B34204F11004EAD1AF
:101940007B1C1B0112F00C0F194402F00F0503441D
:1019500015D0043DAD0803EB850C1C1F0E4656F850
:10196000047B44F8047F6445F9D10135AD002B4474
:10197000294402F00302B1E7541E0346B1E72A46A8
:10198000ACE700BF704700BF704700BF00293CD0E4
:1019900038B551F8043C0C1F002BB8BFE4180546BD
:1019A000FFF7F0FF234B1A682AB1A2420DD9216834
:1019B0006018824223D0626028461C60BDE838402F
:1019C000FFF7E2BFA34203D81A465368002BF9D1B0
:1019D00011685018A04219D024D821686018834299
:1019E00006D0636054602846BDE83840FFF7CCBF9E
:1019F000D3E900030144636021605460F3E7D2E956
:101A00000002014462602160D6E77047206801440B
:101A1000501883421160E6D1D3E9000301445360BA
:101A20001160E0E70C232B602846BDE83840FFF743
:101A3000ABBF00BF8C00002009B3F8B51446CAB193
:101A400006460D4600F05AF8A04202D32F4638460B
:101A5000F8BD21463046FEF7FFFD07460028F6D0C8
:101A600022462946FFF78CFE30462946FFF78EFFB7
:101A70003846F8BD2746FFF789FF3846F8BD1146BE
:101A8000FEF7EABD70B50D46084C114606461A46EB
:101A900028460023236000F059F8431C00D070BD95
:101AA0002368002BFBD0336070BD00BF9C0000207A
:101AB00038B50B46074C05461146184600232360EF
:101AC00000F02CF8431C00D038BD2368002BFBD05D
:101AD0002B6038BD9C00002038B5074C002305461C
:101AE0000846236000F022F8431C00D038BD23686C
:101AF000002BFBD02B6038BD9C00002051F8043C2B
:101B0000181F002BBCBF0B58C0187047024B58223F
:101B10001A604FF0FF3070479C000020024B5822A3
:101B20001A604FF0FF3070479C000020024B582293
:101B30001A600020704700BF9C000020024B582212
:101B40001A604FF0FF3070479C000020024B582273
:101B50001A604FF0FF3070479C000020044A05498E
:101B60001368002B08BF0B461844106018467047D6
:101B700094000020A0000020024B58221A604FF071
:101B8000FF3070479C00002053B94AB9002908BFB4
:101B900000281CBF4FF0FF314FF0FF3000F06EB94E
:101BA000ADF1080C6DE904CE00F006F8DDF804E0B4
:101BB000DDE9022304B070472DE9F047089D044693
:101BC0008C46002B40F083808A42174647D9B2FAF0
:101BD00082F242B1C2F1200024FA00F09140974015
:101BE00040EA010C94404FEA1748230CBCFBF8F67E
:101BF0001FFA87FE08FB16C143EA014306FB0EF1FC
:101C0000994209D9FB1806F1FF3080F019819942F9
:101C100040F21681023E3B445B1AA4B2B3FBF8F0DB
:101C200008FB103344EA034400FB0EFEA64509D925
:101C30003C1900F1FF3380F00581A64540F2028196
:101C400002383C4440EA0640A4EB0E0400261DB1D5
:101C5000D4400023C5E900433146BDE8F08702B90E
:101C6000FFDEB2FA82F2002A50D1CB1B4FEA174EA8
:101C70001FFA87F80126B3FBFEFC210C0EFB1C3378
:101C800041EA034108FB0CF38B4207D979180CF1A8
:101C9000FF3002D28B4200F2E9808446C91AA3B217
:101CA000B1FBFEF00EFB101143EA014408FB00F803
:101CB000A04507D93C1900F1FF3302D2A04500F23C
:101CC000D9801846A4EB080440EA0C40BFE78B42D9
:101CD00009D9002D00F0B1800026C5E90001304689
:101CE0003146BDE8F087B3FA83F6002E4AD18B4225
:101CF00002D3824200F2B880841A61EB0301012012
:101D00008C46002DA8D0C5E9004CA5E7C2F1200300
:101D100020FA03F6974001FA02F04FEA174ED94035
:101D20003043030CB1FBFEF61FFA87F80EFB1611C9
:101D300043EA014306FB08F1994204FA02F409D987
:101D4000FB1806F1FF3C80F08D80994240F28A80BA
:101D5000023E3B445B1A81B2B3FBFEF00EFB103334
:101D600041EA034100FB08F38B4207D9791800F1DF
:101D7000FF3C73D28B4271D902383944CB1A40EA06
:101D8000064678E7C6F1200C03FA06F422FA0CF3B3
:101D90001C4320FA0CF701FA06F34FEA144E21FA1D
:101DA0000CF11F433B0CB1FBFEF91FFA84F80EFB4C
:101DB000191143EA014109FB08FA8A4502FA06F2C1
:101DC00000FA06F308D9611809F1FF3048D28A45B4
:101DD00046D9A9F102092144A1EB0A01BFB2B1FB26
:101DE000FEF00EFB101147EA014700FB08F8B8456A
:101DF00007D9E71900F1FF312ED2B8452CD90238A6
:101E0000274440EA0940A7EB0807A0FB02894F4599
:101E1000C64649461AD317D05DB1B3EB0E0267EB45
:101E2000010707FA0CFCF2404CEA0202F740C5E950
:101E3000002700263146BDE8F0872E4628460BE7EE
:101E40000646E9E61846FDE64345E5D2B8EB020E44
:101E500069EB04010138DFE70846D2E760468DE709
:101E60008146B9E7664675E730464AE7ACF1020CB1
:101E7000394413E702383C4424E700BF704700BFF1
:101E800072B6FEE700B595B03422002107A8FEF730
:101E900007FA002302930393049305930693009398
:101EA000184A116C41F080511164126C02F080529A
:101EB0000092009A0193144A116841F44041116064
:101EC000126802F440420192019A02220792012212
:101ED0000A9210220B920D9307A800F04BF968B9F3
:101EE0000F2302930021039104910591069102A80A
:101EF00000F090F820B915B05DF804FBFFF7C0FFC3
:101F0000FFF7BEFF003802400070004008B500F047
:101F1000B9FBFFF7B7FF01210148FEF729FAFAE7FD
:101F2000C0270008FEE7FEE7FEE7FEE7FEE7704792
:101F30007047704708B500F0BFFB08BD82B00021B4
:101F400000910B4B5A6C42F480425A645A6C02F472
:101F500080420092009A01911A6C42F080521A64F9
:101F60001B6C03F080530193019B02B0704700BFCC
:101F700000380240F8B5244B9B6803F00C03042B97
:101F80003DD0082B3DD1204B5A6802F03F025B68E0
:101F900013F4800F12D01C4B5968C1F38811002331
:101FA0001A48A1FB0001FFF7EFFD174B5B68C3F375
:101FB000014301335B00B0FBF3F023E0124B5B689D
:101FC000C3F388135C010025E41A65F10005AE0136
:101FD00046EA9466A701381B66EB0501CC0044EA8B
:101FE0005074C500E81844F100018B0243EA905395
:101FF0008402204619460023FFF7C6FDD5E70348B3
:1020000000E00348F8BD00BF0038024040787D0181
:102010000024F400002800F09B8070B50D460446B3
:102020004F4B1B6803F007038B4208D2CBB24C4ADC
:102030001370136803F007038B4240F08B80236812
:1020400013F0020F17D013F0040F04D0454A936821
:1020500043F4E0539360236813F0080F04D0414A1F
:10206000936843F4604393603E4A936823F0F0031F
:10207000A1680B439360236813F0010F32D06368AB
:10208000012B21D09A1E012A25D9364A126812F056
:10209000020F61D033498A6822F0030213438B6038
:1020A00000F016FB06462F4B9B6803F00C0362689A
:1020B000B3EB820F16D000F00BFB801B41F288338C
:1020C0009842F0D9032042E0264A126812F4003FF9
:1020D000E0D101203BE0234A126812F0007FD9D101
:1020E000012034E01E4B1B6803F00703AB4207D905
:1020F000EAB21B4B1A701B6803F00703AB422DD1E9
:10210000236813F0040F06D0164A936823F4E053B3
:10211000E1680B439360236813F0080F07D0114A5E
:10212000936823F46043216943EAC1039360FFF796
:1021300021FF0C4B9B68C3F303130B4AD35CD840BD
:102140000A4B18600A4B186800F076FA002070BD40
:10215000012070470120FAE70120F8E70120F6E7A7
:10216000003C024000380240D02700086C000020EC
:1021700068000020002800F0E88170B582B00446B5
:10218000036813F0010F3BD0A64B9B6803F00C03D0
:10219000042B2CD0A34B9B6803F00C03082B21D0FD
:1021A0006368B3F5803F4FD0B3F5A02F52D09D4B5D
:1021B0001A6822F480321A601A6822F480221A60A7
:1021C0006368002B50D000F083FA0546954B1B68DE
:1021D00013F4003F14D100F07BFA401B6428F5D9BA
:1021E0000320B9E18F4B5B6813F4800FD8D08D4B7F
:1021F0001B6813F4003F03D06368002B00F0A78135
:10220000236813F0020F54D0864B9B6813F00C0F19
:102210003ED0844B9B6803F00C03082B33D0E3685B
:10222000002B67D0804B01221A6000F051FA05465E
:102230007C4B1B6813F0020F53D100F049FA401B8E
:102240000228F5D9032087E1764A136843F48033E6
:102250001360B5E7734B1A6842F480221A601A685B
:1022600042F480321A60ABE700F032FA05466D4B5B
:102270001B6813F4003FC3D000F02AFA401B642807
:10228000F5D9032068E1674B5B6813F4800FC6D172
:10229000644B1B6813F0020F03D0E368012B40F07E
:1022A0005881604A136823F0F803216943EAC103A7
:1022B0001360236813F0080F40D0636963B35B4B6E
:1022C00001221A6000F004FA0546564B5B6F13F0CA
:1022D000020F33D100F0FCF9401B0228F5D903208E
:1022E0003AE1504A136823F0F803216943EAC10335
:1022F0001360DEE74C4B00221A6000F0E9F9054656
:10230000484B1B6813F0020FD3D000F0E1F9401BDB
:102310000228F5D903201FE1444B00221A6000F087
:10232000D7F905463F4B5B6F13F0020F06D000F064
:10233000CFF9401B0228F5D903200DE1236813F0E3
:10234000040F78D0374B1B6C13F0805F0DD1002346
:102350000193344B1A6C42F080521A641B6C03F0E8
:1023600080530193019B012500E00025304B1B6841
:1023700013F4807F21D0A368012B32D0052B36D0F7
:10238000284B1A6F22F001021A671A6F22F004021A
:102390001A67A368002B34D000F09AF90646214B47
:1023A0001B6F13F0020F45D100F092F9801B41F230
:1023B00088339842F3D90320CEE01D4A136843F4D2
:1023C0008073136000F084F90646194B1B6813F400
:1023D000807FD0D100F07CF9801B0228F5D9032042
:1023E000BAE0104A136F43F001031367D1E70D4BB6
:1023F0001A6F42F004021A671A6F42F001021A675C
:10240000C7E700F065F90646064B1B6F13F0020F95
:1024100010D000F05DF9801B41F288339842F3D967
:10242000032099E00038024000004742800E4742F6
:1024300000700040EDB9A369002B00F08C804E4A7B
:10244000926802F00C02082A54D0022B17D04B4B92
:1024500000221A6000F03CF90446474B1B6813F059
:10246000007F45D000F034F9001B0228F5D9032085
:1024700072E0414A136C23F080531364DBE73F4B57
:1024800000221A6000F024F905463B4B1B6813F04C
:10249000007F06D000F01CF9401B0228F5D903206C
:1024A0005AE0E369226A1343626A43EA8213A26A2A
:1024B0005208013A43EA0243E26A43EA0263226BAA
:1024C00043EA02732C4A53602C4B01221A6000F03D
:1024D000FFF80446284B1B6813F0007F06D100F07C
:1024E000F7F8001B0228F5D9032035E0002033E07F
:1024F000002031E0012B31D01F4B5B6803F48001D9
:10250000E26991422CD103F03F02216A8A4229D12B
:10251000616A47F6C0721A40B2EB811F24D103F4FE
:102520004031A26A5208013AB1EB024F1ED103F0CA
:102530007062E16AB2EB016F1AD103F0E043226BE3
:10254000B3EB027F16D1002006E001207047012086
:1025500002E0012000E0002002B070BD0120FBE796
:102560000120F9E70120F7E70120F5E70120F3E773
:102570000120F1E70120EFE7003802406000474208
:10258000074AD36823F4E0631B041B0C000200F429
:10259000E060034343F0BF6343F40033D36070470C
:1025A00000ED00E030B4174BDB68C3F30223C3F146
:1025B0000704042C28BF04241D1D062D18D9033B35
:1025C0004FF0FF3505FA04F421EA0401994005FAB9
:1025D00003F322EA0303194300280BDB0901C9B204
:1025E00000F1604000F5614080F8001330BC704796
:1025F0000023E5E700F00F000901C9B2024B1954AE
:10260000F4E700BF00ED00E014ED00E00138B0F1A8
:10261000807F0AD2064B5860064AF02182F82310C8
:102620000020986007221A6070470120704700BFA1
:1026300010E000E000ED00E010B504460E4B187805
:102640004FF47A73B3FBF0F30C4A1068B0FBF3F06D
:10265000FFF7DCFF68B90F2C01D901200AE0002246
:1026600021464FF0FF30FFF79DFF054B1C60002017
:1026700000E0012010BD00BF640000206C000020BD
:102680006800002008B50B4B1A6842F400721A600B
:102690001A6842F480621A601A6842F480721A6002
:1026A0000320FFF76DFF0F20FFF7C6FFFFF746FC83
:1026B000002008BD003C0240034A1168034B1B7810
:1026C0000B441360704700BF980000206400002096
:1026D000014B1868704700BF98000020034AD2F8E9
:1026E000883043F47003C2F88830704700ED00E092
:1026F000DFF834D00D480E490E4A002302E0D458CA
:10270000C4500433C4188C42F9D30B4A0B4C002339
:1027100001E013600432A242FBD3FFF7DFFFFDF7B5
:102720009BFDFFF7F3FB7047000004200000002032
:10273000700000202C28000870000020A00000205D
:10274000FEE70000F8B500BFF8BC08BC9E46704725
:0C275000F8B500BFF8BC08BC9E467047FE
:10275C000400002000000000000000000000000049
:10276C00000000000000000000000000000000005D
:10277C00000000000000000000000000000000004D
:10278C00000000000000000000000000000000003D
:10279C00000000000000000000000000000000002D
:1027AC00000000000000000000000000000000001D
:1027BC000000000068656C6C6F203A2025640D0ADF
:1027CC0000000000000000000000000001020304F3
:1027DC0006070809232D302B20000000686C4C00E4
:1027EC00656667454647000030313233343536373D
:1027FC003839414243444546000000003031323301
:10280C003435363738396162636465660000000020
:08281C009CF3FF7F01000000A6
:04282400390200086D
:042828001102000891
:10282C000400002000000000A027000880270008FA
:10283C0060270008000000000000000000000000FD
:10284C00000000000000000000000000000000007C
:10285C00000000000000000000000000000000006C
:10286C00000000000000000000000000000000005C
:10287C00000000000000000000000000000000004C
:10288C000000000001000000100000000024F40013
:04000005080026F1D8
:00000001FF
