:020000040800F2
:1000000000000420910E0008C5060008C70600087D
:10001000C9060008CB060008CD0600080000000055
:10002000000000000000000000000000CF060008F3
:10003000D106000800000000D3060008D50600081D
:10004000E10E0008E10E0008E10E0008E10E0008D4
:10005000E10E0008E10E0008E10E0008E10E0008C4
:10006000E10E0008E10E0008E10E0008E10E0008B4
:10007000E10E0008E10E0008E10E0008E10E0008A4
:10008000E10E0008E10E0008E10E0008E10E000894
:10009000E10E0008E10E0008E10E0008E10E000884
:1000A000E10E0008E10E0008E10E0008E10E000874
:1000B000E10E0008E10E0008E10E0008E10E000864
:1000C000E10E0008E10E0008E10E0008E10E000854
:1000D000E10E0008E10E0008E10E0008E10E000844
:1000E000E10E0008E10E0008E10E0008E10E000834
:1000F000E10E0008E10E0008E10E0008E10E000824
:1001000000000000E10E0008E10E0008E10E00080A
:100110000000000000000000E10E0008E10E0008F1
:10012000E10E0008E10E0008E10E0008E10E0008F3
:10013000E10E0008E10E0008E10E0008E10E0008E3
:10014000E10E0008E10E0008E10E0008E10E0008D3
:10015000E10E0008E10E0008E10E0008E10E0008C3
:10016000E10E0008E10E00080000000000000000A1
:10017000000000000000000000000000000000007F
:10018000E10E0008E10E0008000000000000000081
:10019000E10E0008E10E0008000000000000000071
:1001A000000000000000000000000000000000004F
:1001B000000000000000000000000000E10E000848
:0401C000E10E000844
:1001C4000348044B834202D0034B03B118477047E2
:1001D4000C0000200C000020000000000548064927
:1001E4000B1AD90F01EBA301491002D0034B03B141
:1001F400184770470C0000200C000020000000008D
:1002040010B5064C237843B9FFF7DAFF044B13B15A
:100214000448AFF300800123237010BD0C000020BC
:1002240000000000E40E000808B5044B1BB10449AB
:100234000448AFF30080BDE80840CFE700000000A9
:1002440010000020E40E000870B50D4E0D4D761B15
:10025400B61006D00024013455F8043B9847A64252
:10026400F9D1094E094D761B00F03AFEB61006D0BE
:100274000024013455F8043B9847A642F9D170BDD7
:10028400140F0008140F0008180F0008140F0008BA
:10029400F0B4860746D0541E002A3CD0CAB20346A6
:1002A40002E014F1FF3436D303F8012B9D07F8D193
:1002B400032C29D9CDB245EA05250F2C45EA05457D
:1002C40033D9A4F11006360903F1200707EB06170A
:1002D40003F1100242E9045542E902551032BA42D0
:1002E400F8D1721C14F00C0F03EB021204F00F0689
:1002F40013D0331F23F003030433134442F8045B85
:100304009342FBD106F003042CB1C9B21C4403F898
:10031400011B9C42FBD1F0BC704734461346002CB1
:10032400F3D1F8E714460346C2E71A462646E0E747
:1003340053B94AB9002908BF00281CBF4FF0FF3148
:100344004FF0FF3000F06EB9ADF1080C6DE904CE4A
:1003540000F006F8DDF804E0DDE9022304B070479C
:100364002DE9F047089D04468C46002B40F083801D
:100374008A42174647D9B2FA82F242B1C2F120004A
:1003840024FA00F09140974040EA010C94404FEA6F
:100394001748230CBCFBF8F61FFA87FE08FB16C1AE
:1003A40043EA014306FB0EF1994209D9FB1806F111
:1003B400FF3080F01981994240F21681023E3B449D
:1003C4005B1AA4B2B3FBF8F008FB103344EA03440D
:1003D40000FB0EFEA64509D93C1900F1FF3380F05D
:1003E4000581A64540F2028102383C4440EA0640B9
:1003F400A4EB0E0400261DB1D4400023C5E900433C
:100404003146BDE8F08702B9FFDEB2FA82F2002A73
:1004140050D1CB1B4FEA174E1FFA87F80126B3FBC6
:10042400FEFC210C0EFB1C3341EA034108FB0CF3D8
:100434008B4207D979180CF1FF3002D28B4200F2BB
:10044400E9808446C91AA3B2B1FBFEF00EFB101179
:1004540043EA014408FB00F8A04507D93C1900F120
:10046400FF3302D2A04500F2D9801846A4EB080459
:1004740040EA0C40BFE78B4209D9002D00F0B1805F
:100484000026C5E9000130463146BDE8F087B3FADD
:1004940083F6002E4AD18B4202D3824200F2B88006
:1004A400841A61EB030101208C46002DA8D0C5E914
:1004B400004CA5E7C2F1200320FA03F6974001FAA5
:1004C40002F04FEA174ED9403043030CB1FBFEF65D
:1004D4001FFA87F80EFB161143EA014306FB08F1E5
:1004E400994204FA02F409D9FB1806F1FF3C80F0A2
:1004F4008D80994240F28A80023E3B445B1A81B26D
:10050400B3FBFEF00EFB103341EA034100FB08F39A
:100514008B4207D9791800F1FF3C73D28B4271D911
:1005240002383944CB1A40EA064678E7C6F1200C73
:1005340003FA06F422FA0CF31C4320FA0CF701FA2E
:1005440006F34FEA144E21FA0CF11F433B0CB1FBA6
:10055400FEF91FFA84F80EFB191143EA014109FB65
:1005640008FA8A4502FA06F200FA06F308D9611875
:1005740009F1FF3048D28A4546D9A9F1020921443C
:10058400A1EB0A01BFB2B1FBFEF00EFB101147EA6A
:10059400014700FB08F8B84507D9E71900F1FF3116
:1005A4002ED2B8452CD90238274440EA0940A7EB9B
:1005B4000807A0FB02894F45C64649461AD317D0FF
:1005C4005DB1B3EB0E0267EB010707FA0CFCF240D6
:1005D4004CEA0202F740C5E9002700263146BDE88F
:1005E400F0872E4628460BE70646E9E61846FDE660
:1005F4004345E5D2B8EB020E69EB04010138DFE7AD
:100604000846D2E760468DE78146B9E7664675E756
:1006140030464AE7ACF1020C394413E702383C4453
:1006240024E700BF704700BF72B6FEE700B595B07F
:100634003422002107A8FFF72BFE00230293039323
:100644000493059306930093184A116C41F080516A
:100654001164126C02F080520092009A0193144AC1
:10066400116841F440411160126802F44042019261
:10067400019A0222079201220A9210220B920D93F0
:1006840007A800F045F968B90F23029300210391EC
:1006940004910591069102A800F08AF820B915B0DA
:1006A4005DF804FBFFF7C0FFFFF7BEFF0038024010
:1006B4000070004008B500F0B3FBFFF7B7FFFEE79A
:1006C400FEE7FEE7FEE7FEE7FEE770477047704788
:1006D40008B500F0BFFB08BD82B0002100910B4BB0
:1006E4005A6C42F480425A645A6C02F4804200927A
:1006F400009A01911A6C42F080521A641B6C03F048
:1007040080530193019B02B0704700BF0038024040
:10071400F8B5244B9B6803F00C03042B3DD0082B45
:100724003DD1204B5A6802F03F025B6813F4800FFE
:1007340012D01C4B5968C1F3881100231A48A1FB3D
:100744000001FFF7F5FD174B5B68C3F30143013369
:100754005B00B0FBF3F023E0124B5B68C3F3881338
:100764005C010025E41A65F10005AE0146EA9466D1
:10077400A701381B66EB0501CC0044EA5074C500A0
:10078400E81844F100018B0243EA905384022046A6
:1007940019460023FFF7CCFDD5E7034800E00348E2
:1007A400F8BD00BF0038024040787D010024F40009
:1007B400002800F09B8070B50D4604464F4B1B6823
:1007C40003F007038B4208D2CBB24C4A1370136870
:1007D40003F007038B4240F08B80236813F0020F71
:1007E40017D013F0040F04D0454A936843F4E05340
:1007F4009360236813F0080F04D0414A936843F4CC
:10080400604393603E4A936823F0F003A1680B436E
:100814009360236813F0010F32D06368012B21D059
:100824009A1E012A25D9364A126812F0020F61D0A5
:1008340033498A6822F0030213438B6000F016FBED
:1008440006462F4B9B6803F00C036268B3EB820FE0
:1008540016D000F00BFB801B41F288339842F0D98C
:10086400032042E0264A126812F4003FE0D101203E
:100874003BE0234A126812F0007FD9D1012034E012
:100884001E4B1B6803F00703AB4207D9EAB21B4BAC
:100894001A701B6803F00703AB422DD1236813F0D1
:1008A400040F06D0164A936823F4E053E1680B431F
:1008B4009360236813F0080F07D0114A936823F458
:1008C4006043216943EAC1039360FFF721FF0C4BA6
:1008D4009B68C3F303130B4AD35CD8400A4B1860DC
:1008E4000A4B186800F076FA002070BD01207047AA
:1008F4000120FAE70120F8E70120F6E7003C024076
:1009040000380240FC0E000808000020040000200B
:10091400002800F0E88170B582B00446036813F043
:10092400010F3BD0A64B9B6803F00C03042B2CD087
:10093400A34B9B6803F00C03082B21D06368B3F529
:10094400803F4FD0B3F5A02F52D09D4B1A6822F4AC
:1009540080321A601A6822F480221A606368002BBD
:1009640050D000F083FA0546954B1B6813F4003F02
:1009740014D100F07BFA401B6428F5D90320B9E1B7
:100984008F4B5B6813F4800FD8D08D4B1B6813F426
:10099400003F03D06368002B00F0A781236813F0A5
:1009A400020F54D0864B9B6813F00C0F3ED0844B3F
:1009B4009B6803F00C03082B33D0E368002B67D04B
:1009C400804B01221A6000F051FA05467C4B1B68EB
:1009D40013F0020F53D100F049FA401B0228F5D955
:1009E400032087E1764A136843F480331360B5E744
:1009F400734B1A6842F480221A601A6842F48032F7
:100A04001A60ABE700F032FA05466D4B1B6813F42D
:100A1400003FC3D000F02AFA401B6428F5D9032014
:100A240068E1674B5B6813F4800FC6D1644B1B68A5
:100A340013F0020F03D0E368012B40F05881604AA1
:100A4400136823F0F803216943EAC10313602368A0
:100A540013F0080F40D0636963B35B4B01221A6043
:100A640000F004FA0546564B5B6F13F0020F33D1C6
:100A740000F0FCF9401B0228F5D903203AE1504A62
:100A8400136823F0F803216943EAC1031360DEE726
:100A94004C4B00221A6000F0E9F90546484B1B68EC
:100AA40013F0020FD3D000F0E1F9401B0228F5D96E
:100AB40003201FE1444B00221A6000F0D7F90546D9
:100AC4003F4B5B6F13F0020F06D000F0CFF9401BD1
:100AD4000228F5D903200DE1236813F0040F78D020
:100AE400374B1B6C13F0805F0DD100230193344B03
:100AF4001A6C42F080521A641B6C03F08053019309
:100B0400019B012500E00025304B1B6813F4807F16
:100B140021D0A368012B32D0052B36D0284B1A6F75
:100B240022F001021A671A6F22F004021A67A368FE
:100B3400002B34D000F09AF90646214B1B6F13F0BA
:100B4400020F45D100F092F9801B41F2883398429C
:100B5400F3D90320CEE01D4A136843F48073136075
:100B640000F084F90646194B1B6813F4807FD0D13A
:100B740000F07CF9801B0228F5D90320BAE0104A62
:100B8400136F43F001031367D1E70D4B1A6F42F063
:100B940004021A671A6F42F001021A67C7E700F0ED
:100BA40065F90646064B1B6F13F0020F10D000F0D8
:100BB4005DF9801B41F288339842F3D9032099E010
:100BC4000038024000004742800E47420070004057
:100BD400EDB9A369002B00F08C804E4A926802F0B4
:100BE4000C02082A54D0022B17D04B4B00221A6057
:100BF40000F03CF90446474B1B6813F0007F45D0D6
:100C040000F034F9001B0228F5D9032072E0414AB0
:100C1400136C23F080531364DBE73F4B00221A600C
:100C240000F024F905463B4B1B6813F0007F06D007
:100C340000F01CF9401B0228F5D903205AE0E369AF
:100C4400226A1343626A43EA8213A26A5208013A8F
:100C540043EA0243E26A43EA0263226B43EA027311
:100C64002C4A53602C4B01221A6000F0FFF8044612
:100C7400284B1B6813F0007F06D100F0F7F8001B27
:100C84000228F5D9032035E0002033E0002031E0CC
:100C9400012B31D01F4B5B6803F48001E269914260
:100CA4002CD103F03F02216A8A4229D1616A47F6B6
:100CB400C0721A40B2EB811F24D103F44031A26AFE
:100CC4005208013AB1EB024F1ED103F07062E16A9F
:100CD400B2EB016F1AD103F0E043226BB3EB027F56
:100CE40016D1002006E001207047012002E0012017
:100CF40000E0002002B070BD0120FBE70120F9E70D
:100D04000120F7E70120F5E70120F3E70120F1E7EF
:100D14000120EFE70038024060004742074AD368E9
:100D240023F4E0631B041B0C000200F4E0600343A3
:100D340043F0BF6343F40033D360704700ED00E039
:100D440030B4174BDB68C3F30223C3F10704042C4C
:100D540028BF04241D1D062D18D9033B4FF0FF3571
:100D640005FA04F421EA0401994005FA03F322EA9E
:100D74000303194300280BDB0901C9B200F16040E9
:100D840000F5614080F8001330BC70470023E5E7AC
:100D940000F00F000901C9B2024B1954F4E700BF77
:100DA40000ED00E014ED00E00138B0F1807F0AD2DC
:100DB400064B5860064AF02182F823100020986000
:100DC40007221A6070470120704700BF10E000E05E
:100DD40000ED00E010B504460E4B18784FF47A731A
:100DE400B3FBF0F30C4A1068B0FBF3F0FFF7DCFF41
:100DF40068B90F2C01D901200AE0002221464FF0E6
:100E0400FF30FFF79DFF054B1C60002000E0012030
:100E140010BD00BF000000200800002004000020D6
:100E240008B50B4B1A6842F400721A601A6842F44F
:100E340080621A601A6842F480721A600320FFF715
:100E44006DFF0F20FFF7C6FFFFF746FC002008BD2B
:100E5400003C0240034A1168034B1B780B441360A7
:100E6400704700BF2800002000000020014B1868D4
:100E7400704700BF28000020034AD2F8883043F4AA
:100E84007003C2F88830704700ED00E0DFF834D01A
:100E94000D480E490E4A002302E0D458C4500433CE
:100EA400C4188C42F9D30B4A0B4C002301E01360A5
:100EB4000432A242FBD3FFF7DFFFFFF7C5F9FFF7C8
:100EC400F9FB704700000420000000200C00002003
:100ED4001C0F00080C0000202C000020FEE700007E
:100EE400F8B500BFF8BC08BC9E467047F8B500BF13
:080EF400F8BC08BC9E467047E3
:100EFC0000000000000000000102030406070809BE
:080F0C0058F4FF7F0100000012
:040F14002D020008A2
:040F180005020008C6
:0C0F1C0001000000100000000024F400A0
:0400000508000E9150
:00000001FF
