:020000040800F2
:10000000000004206157000845210008472100082E
:10001000492100084B2100084D2100080000000084
:100020000000000000000000000000004F21000858
:10003000512100080000000053210008552100084C
:10004000B1570008B1570008B1570008B157000870
:10005000B1570008B1570008B1570008B157000860
:10006000B1570008B1570008B1570008B157000850
:10007000B1570008B1570008B1570008B157000840
:10008000B1570008B1570008B1570008B157000830
:10009000B1570008B1570008B1570008B157000820
:1000A000B1570008B1570008B1570008B157000810
:1000B000B1570008B1570008B1570008B157000800
:1000C000B1570008B1570008B1570008B1570008F0
:1000D000B1570008B1570008B1570008B1570008E0
:1000E000B1570008B1570008B1570008B1570008D0
:1000F000B1570008B1570008B1570008B1570008C0
:1001000000000000B1570008B1570008B1570008BF
:100110000000000000000000B1570008B1570008BF
:100120005D210008B1570008B1570008B157000819
:10013000B1570008B1570008B1570008B15700087F
:10014000B1570008B1570008B1570008B15700086F
:10015000B1570008B1570008B1570008B15700085F
:10016000B1570008B157000800000000000000006F
:10017000000000000000000000000000000000007F
:10018000B1570008B157000800000000000000004F
:10019000B1570008B157000800000000000000003F
:1001A000000000000000000000000000000000004F
:1001B000000000000000000000000000B15700082F
:0401C000B15700082B
:1001D0000348044B834202D0034B03B118477047D6
:1001E0007000002070000020000000000548064953
:1001F0000B1AD90F01EBA301491002D0034B03B135
:1002000018477047700000207000002000000000B8
:1002100010B5064C237843B9FFF7DAFF044B13B14E
:100220000448AFF300800123237010BD700000204C
:1002300000000000B457000808B5044B1BB1044986
:100240000448AFF30080BDE80840CFE7000000009D
:1002500074000020B457000870B50D4E0D4D761B8C
:10026000B61006D00024013455F8043B9847A64246
:10027000F9D1094E094D761B05F09CFAB61006D04F
:100280000024013455F8043B9847A642F9D170BDCB
:10029000BC580008BC580008C0580008BC580008EA
:1002A000F0B4860746D0541E002A3CD0CAB203469A
:1002B00002E014F1FF3436D303F8012B9D07F8D187
:1002C000032C29D9CDB245EA05250F2C45EA054571
:1002D00033D9A4F11006360903F1200707EB0617FE
:1002E00003F1100242E9045542E902551032BA42C4
:1002F000F8D1721C14F00C0F03EB021204F00F067D
:1003000013D0331F23F003030433134442F8045B78
:100310009342FBD106F003042CB1C9B21C4403F88C
:10032000011B9C42FBD1F0BC704734461346002CA5
:10033000F3D1F8E714460346C2E71A462646E0E73B
:100340000EB410B5044683B008B1836963B106A842
:1003500003460190059AA168204600F01FFD03B0F6
:10036000BDE8104003B0704700F032FBEFE700BF7C
:100370000FB410B50B4B1C6882B00CB1A36963B10C
:1003800005A803460190049AA168204600F006FDE6
:1003900002B0BDE8104004B07047204600F018FBE2
:1003A000EEE700BF0000002083692DE9F0418046A0
:1003B0000E4633B384682F4B9C4230D02E4B9C4268
:1003C00039D02E4B9C4208BFD8F80C40A3891B079C
:1003D0002AD5236943B3013EA36816F8015F013BA8
:1003E000A3609DB3002B07DAA7699F4222462946E6
:1003F000404623DC0A2D21D023685A1C22601D7040
:10040000EAE700F0E5FAD8F81830D8F80840002BF1
:10041000D1D1404600F0DCFA164B9C42CED1D8F840
:100420000440A3891B07D4D42146404600F090F82D
:100430000028D0D006E0D8F80840C7E700F028F838
:100440000130C9D14FF0FF30BDE8F081002B09DA4F
:10045000224640460A2100F01BF80130F2D00A2063
:10046000BDE8F08123680A22591C21601A701046E9
:10047000BDE8F08110580008F0570008D057000878
:10048000024B01461868FFF78FBF00BF0000002035
:10049000F8B50D461446064608B1836943B3254BAB
:1004A0009C422AD0244B9C4229D0244B9C4208BF1A
:1004B000F468A389A269A2601A0722D5236903B34D
:1004C00022686169D31AEDB299422F4629DD0133C2
:1004D000A168501C0139A1602060157062699A42C0
:1004E00016D0A389DB0701D50A2D11D03846F8BDF7
:1004F00000F06EFA0F4B9C42D4D17468D9E7B4680F
:10050000D7E72146304600F023F838B92369D7E70A
:100510002146304600F032F90028E7D04FF0FF378F
:10052000E4E72146304600F029F90028F6D1226898
:100530000123CDE710580008F0570008D0570008F5
:10054000024B0A4601461868FFF7A2BF00000020D0
:100550003B4B70B51D6806460C460DB1AB69DBB16F
:10056000384B9C421ED0384B9C424AD0374B9C4261
:1005700008BFEC68B4F90C2093B2190718D52069AC
:1005800008B313F001022CD0636900225B42A3611F
:10059000A26060B3002070BD284600F019FA294B14
:1005A0009C42E0D16C68B4F90C2093B21907E6D4F0
:1005B000DD063CD5580726D4206942F00803A38104
:1005C0009BB20028DDD103F42072B2F5007FD8D0B1
:1005D0003046214600F09AFAA389206913F00102FF
:1005E000D2D1990758BF6269A2600028D2D1B4F96C
:1005F0000C301A06CFD543F04003A3814FF0FF30F3
:1006000070BDAC68B6E7616B51B104F14403994227
:1006100004D0304600F0C4FAB4F90C200023636320
:1006200000232069636022F024022060C5E742F0C5
:100630004002092333604FF0FF30A28170BD00BF3C
:100640000000002010580008F0570008D05700089C
:100650008B891A072DE9F0410C46804641D44A683F
:10066000002A59DDE66A002E53D00022D8F8005047
:10067000216AC8F8002013F4805251D1012340466A
:10068000B047431C5FD0A389E66A216A5F0705D59E
:100690006268636B801A0BB1236CC01A0246002398
:1006A0004046B047461C45D1D8F80030B4F90C207C
:1006B000002B55D01D2B01D0162B5AD123690022B7
:1006C000C4E90032616BC8F8005011B304F144036F
:1006D000994202D0404600F063FA00206063BDE812
:1006E000F0810E69AEB10D680E6099070CBF6369A9
:1006F0000023AD1BA3600AE02B463246A76A216A9D
:100700004046B8470028A5EB000506440ADD002D49
:10071000F2DC0020BDE8F0810A6C002AA2DCF8E7D8
:10072000606DB3E7A38943F04003A3814FF0FF302E
:10073000BDE8F0812269A389226000226260DA04A8
:10074000C0D56065BEE7D8F80030002B9BD01D2BCC
:100750000CD0162B0AD0A38943F04003A381D9E71C
:100760002169C4E90013D304ACD5EAE7C8F8005006
:10077000CFE742F04002A281CCE700BF0B6923B370
:1007800010B5044682B008B18369BBB1104B9942E1
:1007900012D0104B994216D00F4B994208BFE16816
:1007A000B1F90C302BB1204602B0BDE81040FFF784
:1007B0004FBF002002B010BD6168F1E7019100F069
:1007C00007F90199E2E7A168EAE70020704700BF56
:1007D00010580008F0570008D057000820B1054B0A
:1007E00001461868FFF7CABF034B0449186800F0B8
:1007F00035B900BF00000020CC5700087D07000875
:1008000000207047014900F029B900BF7D070008AA
:100810000020704770B54A1E682505FB02F50E469C
:1008200005F1740100F012FA044640B100210C30C9
:10083000666005F168022160A060FFF731FD204687
:1008400070BD00BF1E4B70B51D68AB69064643B353
:100850004835D5E90134013B05D51EE0013B5A1C62
:1008600004F1680419D0B4F90C20002AF6D100254F
:10087000144B6566C4E90055A560C4E90455A5613B
:100880002946E360082204F15C00FFF709FDC4E992
:100890000D55C4E91255204670BD2C682CB1254673
:1008A000D7E7284600F010F8D2E704213046FFF7DA
:1008B000B1FF044628600028F1D10C233360EAE739
:1008C000CC5700080100FFFF2DE9F84F334B3449A6
:1008D0001A68816290424FF00003C0E91233036549
:1008E00004BF012383610546FFF7ACFF686028461B
:1008F000FFF7A8FFA8602846FFF7A4FF6E68E8602E
:1009000000240423F3607466C6E90044B460C6E9B9
:100910000444B461214606F15C000822FFF7C0FCE4
:10092000DFF888B0AF68DFF888A0DFF88890DFF8DC
:1009300088801C4BC6F83080C6E9086BC6E90AA956
:100940002146FB6008227C66C7E90044BC60C7E919
:100950000444BC6107F15C00FFF7A2FCEE68124B97
:10096000C7F83080C7E9087BC7E90AA92146F360C8
:100970007466C6E90044B460C6E90444B46106F193
:100980005C000822FFF78CFC0123C6E9086BC6E96E
:100990000AA9C6F83080AB61BDE8F88FCC570008D3
:1009A0000508000809000100120002006114000897
:1009B00089140008C9140008E9140008024B03490F
:1009C000186800F04BB800BFCC5700087D0700083E
:1009D000836903B978E77047704700BF704700BF6D
:1009E000704700BF704700BF024B0349186800F012
:1009F0000FB800BF0000002001080008024B0349A7
:100A0000186800F005B800BF0000002011080008B9
:100A10002DE9F04110F148071BD088460026D7E9A0
:100A20000154013D0FD4A389012B05F1FF3506D9EF
:100A3000B4F90E300133204601D0C04706436B1C89
:100A400004F16804EFD13F68002FE8D13046BDE8DB
:100A5000F0813E463046BDE8F08100BF2DE9F84305
:100A600010F148071FD0884606464FF00009D7E925
:100A70000154013D11D4A389012B05F1FF3508D99B
:100A8000B4F90E3001332146304602D0C04749EA5E
:100A900000096B1C04F16804EDD13F68002FE6D11A
:100AA0004846BDE8F883B9464846BDE8F88300BF2C
:100AB00070B50C46B1F90E10002996B016461D46C9
:100AC00013DB6A4600F03CFD00280EDB019A02F4BD
:100AD0007042A2F50052B2FA82F252094FF48063DA
:100AE00000202A60336016B070BDA38900221B0667
:100AF0002A6004D540230020336016B070BD4FF447
:100B000080630020336016B070BD00BF8A899207F1
:100B10000B4606D501F1470201211A60C3E9042101
:100B2000704770B582B001AB6A460C460646FFF7C7
:100B3000BFFF00990546304600F088F8B4F90C3044
:100B400070B11649B162019A0099206043F08003A8
:100B5000A381C4E904018AB92B43A38102B070BD0B
:100B60009A05FBD423F0030304F1470243F0020388
:100B70000121A3812260C4E90421EFE73046B4F9E2
:100B80000E1000F075FE10B9B4F90C30E4E7A3893B
:100B900023F0030343F001031BB2DDE7050800085F
:100BA00000293CD038B551F8043C0C1F002BB8BFCD
:100BB000E418054600F0D6FF234B1A682AB1A2427A
:100BC0000DD921686018824223D0626028461C60DB
:100BD000BDE8384000F0C8BFA34203D81A465368A6
:100BE000002BF9D111685018A04219D024D82168DF
:100BF0006018834206D0636054602846BDE83840E0
:100C000000F0B2BFD3E90003014463602160546087
:100C1000F3E7D2E90002014462602160D6E7704741
:100C200020680144501883421160E6D1D3E90003E3
:100C3000014453601160E0E70C232B602846BDE8B7
:100C4000384000F091BF00BF8C000020F8B5CD1CEB
:100C500025F0030508350C2D38BF0C25002D064660
:100C600033DBA94231D82A4F00F07CFF3A6852B1F9
:100C700013685B1B04D43FE023685B1B29D5224625
:100C80005468002CF8D1796800293BD029463046B9
:100C900000F0D4FB431C28D0C41C24F00304A04261
:100CA00005D0211A304600F0C9FB01301DD0256067
:100CB000304600F059FF04F10B0020F00700231D1F
:100CC000C21A01D01B1AA350F8BD0C2232600020BA
:100CD000F8BD0B2B05D8A242636811D05360E7E73B
:100CE000144623601C442560E2E70C233046336041
:100CF00000F03AFF0020F8BD0B2BF1D853681446E2
:100D00003B60D5E7304600F099FB7860BEE700BF56
:100D10008C0000209368013B002B936011DA10B423
:100D20009469A34209DB0A2907D01368581C106094
:100D3000197008465DF8044B70475DF8044BFFF7E7
:100D4000A7BB1368581C106019700846704700BF95
:100D50009BB1F8B513440F4606465D1E541E01E0D4
:100D6000AC4208D03A4614F8011F3046FFF7D2FFD4
:100D7000431CF5D1F8BD0020F8BD0020704700BF2E
:100D8000936810B5144613B95360184610BD00F0AF
:100D9000EBFB0023C4E9013310BD00BF2DE9F04F88
:100DA0009FB08B4690461C46039018B18369002B78
:100DB00000F0B780A24B9B4500F0B980A14B9B454A
:100DC00000F0C780A04B9B4504BF039BD3F80CB039
:100DD000BBF80C30180740F1B280DBF81030002B64
:100DE00000F0AD8030238DF8323098F80030059453
:100DF000002120220B918DF83120944E0127002BE9
:100E000000F08780252B00F01581454603E0252B57
:100E100000F0A38025466B786C1C002BF7D1B4EB57
:100E2000080A76D04246534659460398FFF790FF8A
:100E300001306ED00B9B6A7853440B93002A68D024
:100E400000234FF0FF3201340693CDE908338DF8CB
:100E50005B301C93079205E0069A07FA03F31343ED
:100E60002C4606932546052215F8011B304600F056
:100E700027FDAA46831B0028EED1069BD90644BF56
:100E800020228DF85B2021781A0744BF2B228DF891
:100E90005B202A2966D1059A11680432002905923F
:100EA000C0F29D8009916178A51C2E2973D0684CF1
:100EB0000322204600F004FD002800F08680001B7D
:100EC000069B402404FA00F00343069305F1010851
:100ED000297860488DF83010062200F0F1FC0028D7
:100EE00000F083805C4B002B72D005AB00935A4618
:100EF0005A4B039806A9AFF300808146B9F1FF3F32
:100F000007D00B9B4B440B9398F80030002B7FF4D9
:100F100079AFBBF80C305B0618D40B981FB0BDE856
:100F2000F08FFFF755FD464B9B457FF447AF039B82
:100F3000D3F804B0BBF80C3018073FF54EAF594654
:100F40000398FFF705FB00283FF44CAF4FF0FF304C
:100F5000E4E7039BD3F808B03AE7B4EB080A3FF4A0
:100F60006FAF5FE7A1F13002092A88BFA2469CD883
:100F7000099B01E02C460135297803EB830302EB42
:100F80004303A1F13002092AAA46F3D92E2904F11C
:100F9000020509938BD19AF801102A292FD1059BBC
:100FA0009AF802101A6807920433002A05930AF18E
:100FB00003050AF1020338DB254C032220469A463A
:100FC00000F07EFC00287FF47AAFA84655467FE704
:100FD000059B073323F007030833059391E7494244
:100FE00043F00203099106935DE705AB00935A466F
:100FF0001A4B039806A900F0D5F881467EE7A1F1C7
:1010000030020023092A079301D915E05546697873
:1010100003EB830302EB4303A1F13002092A05F13C
:10102000010AF3D90235079341E74FF0FF329A46A0
:1010300007923CE7444603E7AA46013537E700BF7D
:1010400010580008F0570008D057000878580008DA
:10105000805800088458000800000000510D000866
:1010600010B4044C13460A46014620685DF8044B50
:10107000FFF794BE000000202DE9F0470C46914692
:101080000A698968DDF820808A42B8BF0A46C9F833
:10109000002094F8431006461F4611B10132C9F8EA
:1010A0000020236899065CD5D9F800200232C9F8DF
:1010B0000020236813F0060F19461DD1E1688A1A33
:1010C000002AD8BF194617DD04F1190A002505E0EA
:1010D000E368D9F800209B1AAB420CDD012352468D
:1010E00039463046C047013005F10105F0D14FF0D7
:1010F000FF30BDE8F087216894F84330003318BF13
:1011000001238A060AD5E1185A1C302081F84300D1
:10111000224494F8451082F84310023304F143024C
:1011200039463046C0470130E1D02368A2682169C2
:1011300003F00603042B1DD08A4226DD4FF0000980
:10114000521A91441A34002501E04D451DDA01235D
:10115000224639463046C047013005F10105F4D139
:10116000C5E713F0060F13D094F84330003318BFCF
:101170000123D3E7D9F80000E3688A42A3EB000318
:1011800023EAE379DCDC002BDCDC0020BDE8F0871F
:10119000E168D9F800208A1A002AD8BF194693DCE2
:1011A000AAE700BF2DE9F0430C46097E85B06E2901
:1011B000064617460C98984604F1430E6DD039D96F
:1011C000732900F0F68044D9752900F0048178294C
:1011D00040F0118178232268DFF858C284F8453046
:1011E0000168150651F8043B016040F1A180D10768
:1011F00044BF42F020022260002B00F093801022B6
:10120000002184F843106068A0600028C0F2C88004
:10121000216821F004012160002B40F0A380002808
:1012200040F0C0807546082A00F0AC80AEEB0503A4
:10123000236141E0632900F0E5801AD8002938D005
:10124000582940F0D88084F845102268DFF8E8C1BA
:10125000C6E76F2900F0BF80702940F0CC8022687B
:10126000DFF8D0C142F020027823226084F84530B4
:10127000B6E7642902D0692940F0BD80226803687E
:10128000110603F1040557D5196805600B460029BE
:1012900059DBDFF8A4C10A22B5E703682268616957
:1012A0001D1D056015061B6802D4500600F1BD80A7
:1012B0001960002375462361CDF800803B4603AAE0
:1012C00021463046FFF7D8FE013020D02A46236958
:1012D00039463046C047013019D022680398E36888
:1012E000920719D51A1A002A16DD04F119090025EA
:1012F00004E0E36803981A1AAA420DDD01234A4666
:1013000039463046C047013005F10105F1D14FF0B3
:10131000FF3005B0BDE8F0839842B8BF184605B06D
:10132000BDE8F083226822F020022260102267E7E5
:10133000500648BF9BB25AE75106A5D5B3F9003015
:1013400005601946A3E76168A1602D200029C3F15B
:10135000000384F8430002DB22F004022260DFF87D
:10136000D8C00A22754600E00B46B3FBF2F102FB3F
:10137000113093421CF8000005F8010DF4D2082A40
:101380007FF454AF2368DB077FF550AF62682369B1
:101390009A423FF74BAF302305F8013C013D45E74A
:1013A000002BDFD19CF8003084F8423004F1420574
:1013B00039E703686268191D01601D68002128462D
:1013C00000F07EFA002832D0401B606020610023CC
:1013D00084F8433070E72268036812F0800F03F14D
:1013E00004051AD01B6805606F290CBF08220A2269
:1013F000DFF844C004E7012384F84210236104F1BC
:101400004205E4E703681A68191D0123016004F12D
:10141000420584F842202361D9E712F0400F0DBF46
:101420001B6805601B880560DEE7198041E760687E
:10143000CCE700BFA05800088C58000838B5074C0E
:10144000002305460846236000F0FCFB431C00D047
:1014500038BD2368002BFBD02B6038BDF40300207F
:1014600010B50C46B1F90E1000F0A6FB002803DB06
:10147000636D0344636510BDA38923F48053A38186
:1014800010BD00BF002070472DE9F0411646B1F9AC
:101490000C201F46D3050C460546B1F90E1009D4A1
:1014A00022F48052A2813B4632462846BDE8F041F4
:1014B00000F01EB80022022300F0ECF9B4F90C2071
:1014C000B4F90E10ECE700BF10B50C46B1F90E10E0
:1014D00000F0E0F9A389421C0EBF23F4805343F4CB
:1014E00080536065A38110BDB1F90E1000F016B8ED
:1014F00070B50D46084C114606461A46284600238C
:10150000236000F029FD431C00D070BD2368002B30
:10151000FBD0336070BD00BFF403002038B5074C2A
:10152000002305460846236000F064FB431C00D0FE
:1015300038BD2368002BFBD02B6038BDF40300209E
:1015400038B50B46074C0546114618460023236064
:1015500000F058FB431C00D038BD2368002BFBD0A3
:101560002B6038BDF40300209368002B00F002814B
:101570002DE9F04FB1F90C309BB20C46190783B03E
:101580008246904635D522699AB313F00202D8F804
:1015900000603DD00027D4F828B0D4F820C0DFF890
:1015A000CC923D464D452B463A4628BF4B466146B8
:1015B0005046D5B1D847002840F3D280D8F808303B
:1015C0001B1A07442D1AC8F80830002B00F0B7800A
:1015D000D4F820C0D4F828B04D452B463A4628BF51
:1015E0004B4661465046002DE4D1D6E900750836D9
:1015F000D8E721465046FEF7ABFF002840F0308187
:10160000B4F90C30D8F800609BB213F00202C1D1DB
:1016100013F0010940F0B080A76820684D46002D06
:1016200054D09A0540F1BC80AF42BB4600F2E7803F
:1016300013F4906F2FD0D4E9041707EB4707A0EB02
:10164000010B07EBD777681C7F105844B8423A4625
:1016500084BF07463A465B0540F1E9801146504693
:10166000FFF7F4FA002800F0F5805A46216901904E
:1016700000F076F9A289019B22F4906242F0800288
:10168000A281A7EB0B0203EB0B00676123612060D3
:10169000A2602F46AB465A46494600F0FBF9A268C5
:1016A0002368D21B5B442F46A26023600025D8F834
:1016B0000830DB1BB944C8F80830002B3FD0B4F920
:1016C0000C30A76820689BB2002DAAD1D6E90095FE
:1016D0000836A4E70BF1080353E902679B46083379
:1016E000002FF9D03A460A21304600F0E9F80028E8
:1016F00053D00130A0EB06094B46D4E90412206810
:10170000BB4228BF3B46884203D9A5681544AB427B
:1017100019DC9A427DDC1346A56A216A324650469E
:10172000A847051E1CDDB9EB05096BD00120D8F8D0
:1017300008305B1B2E447F1BC8F8083013BB002009
:1017400003B0BDE8F08F31462A4600F0A3F92368C4
:101750002B44236021465046FFF710F80028E2D0C2
:10176000B4F90C3043F040034FF0FF30A38103B0D5
:10177000BDE8F08F0020704733469146104617466B
:101780004E469B46002FA5D00028B5D13A460A21E7
:10179000304600F095F80028ABD17B1C9946ACE7A9
:1017A0002369834215D36169A94212D82E4BA76AD7
:1017B0009D4294BF2B466FF000434A4693FBF1F3E2
:1017C000504601FB03F3216AB847071EC8DDED1B35
:1017D0006DE7AF4228BF2F463A46494600F05AF916
:1017E000A3682268DB1B3A44A3602260002BEED181
:1017F00021465046FEF7C2FF0028E8D0B0E72F464A
:10180000AB4648E721465046FEF7B8FF00288ED089
:10181000A6E71A463146019300F03CF9019BA16806
:101820002268C91A1A44A16022601D467BE750460F
:1018300000F09CF9034600287FF423AF216950464D
:10184000FFF7AEF9B4F90C300C2223F08003CAF88C
:10185000002087E70C23CAF80030B4F90C3081E788
:101860004FF0FF306CE700BFFEFFFF7F00FCFF7F03
:1018700038B5074C002305460846236000F0CAF936
:10188000431C00D038BD2368002BFBD02B6038BD33
:10189000F403002070B50D46084C114606461A4662
:1018A00028460023236000F0BDF9431C00D070BD22
:1018B0002368002BFBD0336070BD00BFF403002011
:1018C00001F0FF01102A2BDB10F0070F08D010F8F1
:1018D000013B013A8B422DD010F0070F42B3F6D1F5
:1018E000F0B441EA012141EA014122F007047FF00E
:1018F00000070023F0E80256083C85EA010586EA65
:10190000010685FA47F5A3FA87F586FA47F6A5FAA0
:1019100087F68EB9EED1F0BC01F0FF0102F00702AC
:1019200032B110F8013B013A83EA010313B1F8D157
:101930000020704701387047002D06BF3546033838
:10194000073815F0010F07D1013015F4807F02BF71
:10195000013015F4C03F0130F0BC0138704700BFC2
:10196000844641EA000313F003036DD1403A41D3AA
:1019700051F8043B40F8043B51F8043B40F8043B69
:1019800051F8043B40F8043B51F8043B40F8043B59
:1019900051F8043B40F8043B51F8043B40F8043B49
:1019A00051F8043B40F8043B51F8043B40F8043B39
:1019B00051F8043B40F8043B51F8043B40F8043B29
:1019C00051F8043B40F8043B51F8043B40F8043B19
:1019D00051F8043B40F8043B51F8043B40F8043B09
:1019E00051F8043B40F8043B51F8043B40F8043BF9
:1019F000403ABDD2303211D351F8043B40F8043B99
:101A000051F8043B40F8043B51F8043B40F8043BD8
:101A100051F8043B40F8043B103AEDD20C3205D3A8
:101A200051F8043B40F8043B043AF9D2043208D0A0
:101A3000D2071CBF11F8013B00F8013B01D30B8812
:101A400003806046704700BF082A13D38B078DD0F0
:101A500010F003038AD0C3F10403D21ADB071CBFC2
:101A600011F8013B00F8013B80D331F8023B20F82C
:101A7000023B7BE7043AD9D3013A11F8013B00F865
:101A8000013BF9D20B7803704B7843708B788370ED
:101A9000604670478842F0B40DD98B1883420AD94A
:101AA000841832B1224613F8014D02F8014D9942D3
:101AB000F9D1F0BC70470F2A0ED80346541E002AF5
:101AC000F7D001340C44013B11F8012B03F8012F2E
:101AD000A142F9D1F0BC704740EA01039B073BD11A
:101AE000A2F110073F0901F1200606EB071601F1EC
:101AF000100300F1100453F8105C44F8105C53F824
:101B00000C5C44F80C5C53F8085C44F8085C53F82F
:101B1000045C44F8045C1033B34204F11004EAD1CD
:101B20007B1C1B0112F00C0F194402F00F0503443B
:101B300015D0043DAD0803EB850C1C1F0E4656F86E
:101B4000047B44F8047F6445F9D10135AD002B4492
:101B5000294402F00302B1E7541E0346B1E72A46C6
:101B6000ACE700BF704700BF704700BF09B3F8B5CE
:101B70001446CAB106460D4600F034F8A04202D31E
:101B80002F463846F8BD21463046FFF75FF8074636
:101B90000028F6D022462946FFF7E2FE30462946C5
:101BA000FEF7FEFF3846F8BD2746FEF7F9FF384638
:101BB000F8BD1146FFF74AB870B50D46084C1146FE
:101BC00006461A4628460023236000F033F8431CDB
:101BD00000D070BD2368002BFBD0336070BD00BF08
:101BE000F403002051F8043C181F002BBCBF0B5815
:101BF000C0187047024B58221A604FF0FF307047F0
:101C0000F4030020024B58221A604FF0FF30704757
:101C1000F4030020024B58221A600020704700BFD6
:101C2000F4030020024B58221A604FF0FF30704737
:101C3000F4030020024B58221A604FF0FF30704727
:101C4000F4030020044A05491368002B08BF0B4623
:101C5000184410601846704794000020F8030020D4
:101C600053B94AB9002908BF00281CBF4FF0FF3103
:101C70004FF0FF3000F06EB9ADF1080C6DE904CE05
:101C800000F006F8DDF804E0DDE9022304B0704757
:101C90002DE9F047089D04468C46002B40F08380D8
:101CA0008A42174647D9B2FA82F242B1C2F1200005
:101CB00024FA00F09140974040EA010C94404FEA2A
:101CC0001748230CBCFBF8F61FFA87FE08FB16C169
:101CD00043EA014306FB0EF1994209D9FB1806F1CC
:101CE000FF3080F01981994240F21681023E3B4458
:101CF0005B1AA4B2B3FBF8F008FB103344EA0344C8
:101D000000FB0EFEA64509D93C1900F1FF3380F017
:101D10000581A64540F2028102383C4440EA064073
:101D2000A4EB0E0400261DB1D4400023C5E90043F6
:101D30003146BDE8F08702B9FFDEB2FA82F2002A2E
:101D400050D1CB1B4FEA174E1FFA87F80126B3FB81
:101D5000FEFC210C0EFB1C3341EA034108FB0CF393
:101D60008B4207D979180CF1FF3002D28B4200F276
:101D7000E9808446C91AA3B2B1FBFEF00EFB101134
:101D800043EA014408FB00F8A04507D93C1900F1DB
:101D9000FF3302D2A04500F2D9801846A4EB080414
:101DA00040EA0C40BFE78B4209D9002D00F0B1801A
:101DB0000026C5E9000130463146BDE8F087B3FA98
:101DC00083F6002E4AD18B4202D3824200F2B880C1
:101DD000841A61EB030101208C46002DA8D0C5E9CF
:101DE000004CA5E7C2F1200320FA03F6974001FA60
:101DF00002F04FEA174ED9403043030CB1FBFEF618
:101E00001FFA87F80EFB161143EA014306FB08F19F
:101E1000994204FA02F409D9FB1806F1FF3C80F05C
:101E20008D80994240F28A80023E3B445B1A81B227
:101E3000B3FBFEF00EFB103341EA034100FB08F355
:101E40008B4207D9791800F1FF3C73D28B4271D9CC
:101E500002383944CB1A40EA064678E7C6F1200C2E
:101E600003FA06F422FA0CF31C4320FA0CF701FAE9
:101E700006F34FEA144E21FA0CF11F433B0CB1FB61
:101E8000FEF91FFA84F80EFB191143EA014109FB20
:101E900008FA8A4502FA06F200FA06F308D9611830
:101EA00009F1FF3048D28A4546D9A9F102092144F7
:101EB000A1EB0A01BFB2B1FBFEF00EFB101147EA25
:101EC000014700FB08F8B84507D9E71900F1FF31D1
:101ED0002ED2B8452CD90238274440EA0940A7EB56
:101EE0000807A0FB02894F45C64649461AD317D0BA
:101EF0005DB1B3EB0E0267EB010707FA0CFCF24091
:101F00004CEA0202F740C5E9002700263146BDE849
:101F1000F0872E4628460BE70646E9E61846FDE61A
:101F20004345E5D2B8EB020E69EB04010138DFE767
:101F30000846D2E760468DE78146B9E7664675E711
:101F400030464AE7ACF1020C394413E702383C440E
:101F500024E700BF704700BF10B41046002403E020
:101F60004FF060431A700134844216DA11F8012BE5
:101F70004FF06043D3F8803E13F0010FF3D04FF0E1
:101F80006043D3F8003E13F0010FECD04FF06043F4
:101F90001B68002BE4D100BFF8E75DF8044B7047E5
:101FA00072B6FEE700B595B03422002107A8FEF70F
:101FB00077F9002302930393049305930693009308
:101FC0001E4A116C41F080511164126C02F0805273
:101FD0000092009A01931A4A116841F4404111603D
:101FE000126802F440420192019A022207920121F2
:101FF0000A9110210B910D920E9308230F936423E5
:10200000109311921292139207A800F0A7FF88B9BB
:102010000F23029302230393002304934FF480526F
:1020200005920693032102A800F0C2FE20B915B064
:102030005DF804FBFFF7B4FFFFF7B2FF0038024082
:102040000070004030B585B001F0FAFCFFF7AAFF40
:1020500002F0BAFB02F002FD02F028FC02F03CFDA7
:1020600002F016FD02F07AFF02F0ECFF02F0C6FD6E
:1020700002F0F6FD03F03AF803F08EF803F0C6F82C
:10208000002401940294ADF80C40254D21462846C9
:1020900000F0FEFB2146284600F034FD052201A990
:1020A000204801F0DDFD03E01F48FEF7E9F90134A7
:1020B000012C07DC03F0E4F90028F5D01B48FEF7FB
:1020C000DFF9F4E703F0EEFA4FF47A71084603F013
:1020D00009FB15E003F018FA154B198809B21548E9
:1020E000FEF746F9C82001F0D7FC134B596A03F5F7
:1020F00080635A6A1148FEF73BF9C82001F0CCFC16
:102100000024042CE6DC04AB03EB440333F80C1C82
:102110000B48FEF72DF9C82001F0BEFC0134F0E7B2
:10212000140300209C000020345800083058000898
:10213000E803002044580008000400404C58000800
:1021400040580008FEE7FEE7FEE7FEE7FEE77047BF
:102150007047704708B501F08DFC08BD08B502480E
:1021600001F0F0FA08BD00BFE400002082B00021B9
:1021700000910B4B5A6C42F480425A645A6C02F440
:1021800080420092009A01911A6C42F080521A64C7
:102190001B6C03F080530193019B02B0704700BF9A
:1021A0000038024030B4036A23F001030362056A79
:1021B0004268846924F073040B681C4325F002050F
:1021C0008B682B43104DA84203D005F58065A842CB
:1021D00005D123F00803CD682B4323F004030A4DF7
:1021E000A84203D005F58065A84205D122F44072CB
:1021F0004D6915438A692A43426084614A68426393
:10220000036230BC704700BF0000014030B4036A75
:1022100023F480730362036A4268C46924F0730480
:102220000D682C4323F400738D6843EA0523124D97
:10223000A84203D005F58065A84206D123F40063C7
:10224000CD6843EA052323F480630B4DA84203D0F5
:1022500005F58065A84207D122F440524D6942EA53
:1022600005128D6942EA05124260C4614A68C26380
:10227000036230BC704700BF0000014030B4036A05
:1022800023F480530362036A4468C26922F4E6427D
:102290000D6842EA052223F400538D6843EA0533B2
:1022A000094DA84203D005F58065A84204D124F465
:1022B00080444D6944EA85144460C2614A680264FE
:1022C000036230BC704700BF0000014030B4036AB5
:1022D000056A25F001050562846924F0F00444EAEA
:1022E000021423F00A030B438461036230BC70477D
:1022F00030B4056A25F0100505628469036A24F488
:10230000704444EA023423F0A00343EA01138461D9
:10231000036230BC7047836823F070030B4343F0C3
:102320000703836070477047704700000368304AB6
:10233000904212D0B0F1804F0FD0A2F57C42904273
:102340000BD002F58062904207D002F58062904285
:1023500003D002F57842904203D123F070034A681B
:102360001343234A90422AD0B0F1804F27D0A2F5E0
:102370007C42904223D002F5806290421FD002F549
:10238000806290421BD002F57842904217D002F54D
:102390007052904213D002F5806290420FD002F545
:1023A000806290420BD0A2F59832904207D002F59D
:1023B0008062904203D002F58062904203D123F400
:1023C0004073CA68134323F080034A6913430360D0
:1023D0008B68C3620B688362054B984203D003F598
:1023E0008063984201D10B69036301234361704705
:1023F0000000014040B310B5044690F83D30F3B101
:10240000022384F83D30214651F8040BFFF78EFF7C
:10241000012384F8463084F83E3084F83F3084F855
:10242000403084F8413084F8423084F8433084F8F6
:10243000443084F8453084F83D30002010BD80F8E9
:102440003C3002F03FFCDBE70120704740B310B5A1
:10245000044690F83D30F3B1022384F83D30214624
:1024600051F8040BFFF762FF012384F8463084F82B
:102470003E3084F83F3084F8403084F8413084F8AE
:10248000423084F8433084F8443084F8453084F88E
:102490003D30002010BD80F83C30FFF744FFDBE703
:1024A0000120704740B310B5044690F83D30F3B1B9
:1024B000022384F83D30214651F8040BFFF736FF24
:1024C000012384F8463084F83E3084F83F3084F8A5
:1024D000403084F8413084F8423084F8433084F846
:1024E000443084F8453084F83D30002010BD80F839
:1024F0003C30FFF719FFDBE701207047002853D07D
:10250000F8B50D46044690F83D30002B47D0022325
:1025100084F83D302268936823F4804323F0070356
:102520009360214651F8040BFFF700FF21688A6889
:102530008E690F6A2868104326F4407626F0030659
:10254000AA68AB6942EA0323334323F47C4323F0B4
:10255000FC03EE68EA6946EA02261E432A6A130370
:102560002A6943EA0213334327F0AA076A686D69B0
:1025700042EA05123A43886021688B6123681A6237
:10258000012384F8463084F83E3084F83F3084F8E4
:10259000423084F8433084F83D300020F8BD80F8A4
:1025A0003C3002F0DBFBB2E70120704730B4036A35
:1025B00023F010030362036A4468826922F4E6424E
:1025C0000D6842EA052223F020038D6843EA0513D3
:1025D000114DA84203D005F58065A84206D123F02D
:1025E0008003CD6843EA051323F040030A4DA84257
:1025F00003D005F58065A84207D124F440644D69F5
:1026000044EA85048D6944EA8504446082614A682D
:102610008263036230BC70470000014090F83C3098
:10262000012B28D010B50446012380F83C300C2A39
:102630001CD8DFE802F0071B1B1B0C1B1B1B111B0C
:102640001B1B16000068FFF7ADFD00200FE00068BF
:10265000FFF7ACFF00200AE00068FFF7D7FD00207D
:1026600005E00068FFF70AFE002000E001200023DB
:1026700084F83C3010BD0220704738B590F83C30EB
:10268000012B66D004460D46012380F83C300C2A0D
:102690005AD8DFE802F0075959591B59595930598E
:1026A000595944000068FFF77DFD2268936943F0A3
:1026B000080393612268936923F0040393612268FD
:1026C000936929690B43936100203EE00068FFF79E
:1026D0006DFF2268936943F40063936122689369F4
:1026E00023F48063936122689369296943EA012393
:1026F0009361002029E00068FFF788FD2268D36914
:1027000043F00803D3612268D36923F00403D36143
:102710002268D36929690B43D361002015E0006862
:10272000FFF7ACFD2268D36943F40063D3612268EC
:10273000D36923F48063D3612268D369296943EAAA
:102740000123D361002000E00120002384F83C3005
:1027500038BD0220FCE710B4846824F47F4442EAC8
:1027600003220A43224382605DF8044B704790F8CD
:102770003C30012B78D010B50446012380F83C3062
:10278000022380F83D300268936823F47F4323F0EE
:10279000770393600B68602B4CD029D8402B54D022
:1027A0000CD9502B22D1CA6849680068FFF78EFD0A
:1027B00050212068FFF7AFFD002005E0202B0DD051
:1027C00009D9302B0AD00120012384F83D300023A1
:1027D00084F83C3010BD0BB1102B05D11946206890
:1027E000FFF799FD0020EFE70120EDE70120EBE77F
:1027F000B3F5805F34D0B3F5005F0CD1CB684A6885
:1028000089680068FFF7A7FF2268936843F4804354
:1028100093600020D8E7702B24D1CB684A68896880
:102820000068FFF798FF2268936843F0770393608E
:102830000020C9E7CA6849680068FFF759FD6021B0
:102840002068FFF768FD0020BEE7CA684968006895
:10285000FFF73CFD40212068FFF75DFD0020B3E756
:102860000020B1E70120AFE70220704710B401F06B
:102870001F01012303FA01F4036A23EA040303623C
:10288000036A02FA01F10B4303625DF8044B7047DF
:1028900010B504460846C1B994F83E30DBB2013B9E
:1028A00018BF0123002B40F0918038BB022384F82D
:1028B0003E300C2800F28C80DFE800F0308A8A8AF3
:1028C0006B8A8A8A718A8A8A7700042908D0082943
:1028D0000DD094F84130DBB2013B18BF0123E1E792
:1028E00094F83F30DBB2013B18BF0123DAE794F8DC
:1028F0004030DBB2013B18BF0123D3E7042805D0E9
:10290000082807D0022384F84130D2E7022384F854
:102910003F30CEE7022384F84030CAE72268D3680C
:1029200043F00203D360012201462068FFF79EFFB7
:102930002368294A934203D002F58062934203D16F
:102940005A6C42F400425A642368234A934232D0BC
:10295000B3F1804F2FD0A2F57C4293422BD002F5E9
:102960008062934227D002F58062934223D002F521
:10297000784293421FD002F5705293421BD0A2F5C9
:102980009432934217D01A6842F001021A60002074
:102990001FE02268D36843F00403D360C3E72268D2
:1029A000D36843F00803D360BDE72268D36843F0DF
:1029B0001003D360B7E79A6802F00702062A09D02D
:1029C0001A6842F001021A60002002E0012000E0D3
:1029D000012010BD0020FCE70000014010B50446B6
:1029E0000846002942D194F83E30DBB2013B18BFC3
:1029F0000123002B6ED1002851D1022384F83E30F0
:102A0000012201462068FFF731FF2368334A9342D1
:102A100003D002F58062934203D15A6C42F4004223
:102A20005A6423682D4A934249D0B3F1804F46D06F
:102A3000A2F57C42934242D002F5806293423ED09E
:102A400002F5806293423AD002F57842934236D042
:102A500002F57052934232D0A2F5943293422ED0B6
:102A60001A6842F001021A60002032E0042908D0FE
:102A700008290DD094F84130DBB2013B18BF012387
:102A8000B7E794F83F30DBB2013B18BF0123B0E752
:102A900094F84030DBB2013B18BF0123A9E70428BA
:102AA00005D0082807D0022384F84130A8E7022384
:102AB00084F83F30A4E7022384F84030A0E79A6806
:102AC00002F00702062A07D01A6842F001021A60D3
:102AD000002010BD0120FCE70020FAE700000140C3
:102AE00010B401F01F01042303FA01F4036A23EA7E
:102AF00004030362036A02FA01F10B4303625DF807
:102B0000044B704710B50446084699B994F8423012
:102B1000DBB2013B18BF0123002B40F0848010BBC7
:102B2000022384F84230042866D008286AD050B3C3
:102B3000012010BD042908D008290DD094F8453093
:102B4000DBB2013B18BF0123E6E794F84330DBB268
:102B5000013B18BF0123DFE794F84430DBB2013BAF
:102B600018BF0123D8E7042805D0082807D002237E
:102B700084F84530D7E7022384F84330D3E70223B3
:102B800084F84430CFE72268D36843F00203D3606F
:102B90002268D36843F08003D36004220146206892
:102BA000FFF79EFF2268536C43F40043536423688D
:102BB0001F4A93422CD0B3F1804F29D0A2F57C421A
:102BC000934225D002F58062934221D002F58062C3
:102BD00093421DD002F57842934219D002F570520B
:102BE000934215D0A2F59432934211D01A6842F064
:102BF00001021A6000209CE72268D36843F00403B6
:102C0000D360C5E72268D36843F00803D360BFE709
:102C10009A6802F00702062A07D01A6842F00102F9
:102C20001A60002085E7012083E7002081E700BFCC
:102C30000000014090F83C30012B3BD030B4012320
:102C400080F83C30022380F83D3003685C689D6862
:102C500024F070040A6822435A600368164A9342BB
:102C60001AD0B3F1804F17D0A2F57C42934213D013
:102C700002F5806293420FD002F5806293420BD03E
:102C800002F57842934207D002F57052934203D086
:102C9000A2F59432934204D125F080054A68154389
:102CA0009D60012380F83D30002380F83C301846B9
:102CB00030BC7047022070470000014090F83C3063
:102CC000012B22D0012380F83C30CB6823F44073E1
:102CD0008A68134323F480634A68134323F4006330
:102CE0000A68134323F480530A69134323F40053FF
:102CF0004A69134323F48043CA6913430268536447
:102D0000002380F83C3018467047022070470000CE
:102D1000F8B5244B9B6803F00C03042B3DD0082B23
:102D20003DD1204B5A6802F03F025B6813F4800FDC
:102D300012D01C4B5968C1F3881100231A48A1FB1B
:102D40000001FEF78DFF174B5B68C3F301430133AE
:102D50005B00B0FBF3F023E0124B5B68C3F3881316
:102D60005C010025E41A65F10005AE0146EA9466AF
:102D7000A701381B66EB0501CC0044EA5074C5007E
:102D8000E81844F100018B0243EA90538402204684
:102D900019460023FEF764FFD5E7034800E0034827
:102DA000F8BD00BF0038024040787D010024F400E7
:102DB000002800F09B8070B50D4604464F4B1B6801
:102DC00003F007038B4208D2CBB24C4A137013684E
:102DD00003F007038B4240F08B80236813F0020F4F
:102DE00017D013F0040F04D0454A936843F4E0531E
:102DF0009360236813F0080F04D0414A936843F4AA
:102E0000604393603E4A936823F0F003A1680B434C
:102E10009360236813F0010F32D06368012B21D037
:102E20009A1E012A25D9364A126812F0020F61D083
:102E300033498A6822F0030213438B6000F026FEB8
:102E400006462F4B9B6803F00C036268B3EB820FBE
:102E500016D000F01BFE801B41F288339842F0D957
:102E6000032042E0264A126812F4003FE0D101201C
:102E70003BE0234A126812F0007FD9D1012034E0F0
:102E80001E4B1B6803F00703AB4207D9EAB21B4B8A
:102E90001A701B6803F00703AB422DD1236813F0AF
:102EA000040F06D0164A936823F4E053E1680B43FD
:102EB0009360236813F0080F07D0114A936823F436
:102EC0006043216943EAC1039360FFF721FF0C4B84
:102ED0009B68C3F303130B4AD35CD8400A4B1860BA
:102EE0000A4B186800F086FD002070BD0120704775
:102EF0000120FAE70120F8E70120F6E7003C024054
:102F000000380240605800086C0000206800002073
:102F1000014B1868704700BF6C00002008B5FFF730
:102F2000F7FF044B9B68C3F38223034AD35CD8406A
:102F300008BD00BF003802407058000808B5FFF710
:102F4000E7FF044B9B68C3F34233034AD35CD8408A
:102F500008BD00BF0038024070580008002800F08B
:102F6000E88170B582B00446036813F0010F3BD0CE
:102F7000A64B9B6803F00C03042B2CD0A34B9B683F
:102F800003F00C03082B21D06368B3F5803F4FD0CA
:102F9000B3F5A02F52D09D4B1A6822F480321A60EC
:102FA0001A6822F480221A606368002B50D000F067
:102FB0006DFD0546954B1B6813F4003F14D100F0DE
:102FC00065FD401B6428F5D90320B9E18F4B5B6890
:102FD00013F4800FD8D08D4B1B6813F4003F03D03F
:102FE0006368002B00F0A781236813F0020F54D010
:102FF000864B9B6813F00C0F3ED0844B9B6803F00C
:103000000C03082B33D0E368002B67D0804B0122E0
:103010001A6000F03BFD05467C4B1B6813F0020F65
:1030200053D100F033FD401B0228F5D9032087E17E
:10303000764A136843F480331360B5E7734B1A681C
:1030400042F480221A601A6842F480321A60ABE7B8
:1030500000F01CFD05466D4B1B6813F4003FC3D008
:1030600000F014FD401B6428F5D9032068E1674B8C
:103070005B6813F4800FC6D1644B1B6813F0020F1A
:1030800003D0E368012B40F05881604A136823F0B5
:10309000F803216943EAC1031360236813F0080FA2
:1030A00040D0636963B35B4B01221A6000F0EEFC11
:1030B0000546564B5B6F13F0020F33D100F0E6FC70
:1030C000401B0228F5D903203AE1504A136823F047
:1030D000F803216943EAC1031360DEE74C4B002289
:1030E0001A6000F0D3FC0546484B1B6813F0020F32
:1030F000D3D000F0CBFC401B0228F5D903201FE100
:10310000444B00221A6000F0C1FC05463F4B5B6F48
:1031100013F0020F06D000F0B9FC401B0228F5D9CD
:1031200003200DE1236813F0040F78D0374B1B6C9C
:1031300013F0805F0DD100230193344B1A6C42F0E1
:1031400080521A641B6C03F080530193019B01258C
:1031500000E00025304B1B6813F4807F21D0A3686A
:10316000012B32D0052B36D0284B1A6F22F00102EA
:103170001A671A6F22F004021A67A368002B34D072
:1031800000F084FC0646214B1B6F13F0020F45D163
:1031900000F07CFC801B41F288339842F3D9032075
:1031A000CEE01D4A136843F48073136000F06EFC98
:1031B0000646194B1B6813F4807FD0D100F066FCE3
:1031C000801B0228F5D90320BAE0104A136F43F0A0
:1031D00001031367D1E70D4B1A6F42F004021A671F
:1031E0001A6F42F001021A67C7E700F04FFC06466B
:1031F000064B1B6F13F0020F10D000F047FC801B32
:1032000041F288339842F3D9032099E00038024014
:1032100000004742800E474200700040EDB9A369AC
:10322000002B00F08C804E4A926802F00C02082AB3
:1032300054D0022B17D04B4B00221A6000F026FC12
:103240000446474B1B6813F0007F45D000F01EFC7E
:10325000001B0228F5D9032072E0414A136C23F0C9
:1032600080531364DBE73F4B00221A6000F00EFC32
:1032700005463B4B1B6813F0007F06D000F006FCB0
:10328000401B0228F5D903205AE0E369226A134360
:10329000626A43EA8213A26A5208013A43EA02438D
:1032A000E26A43EA0263226B43EA02732C4A5360E8
:1032B0002C4B01221A6000F0E9FB0446284B1B68E6
:1032C00013F0007F06D100F0E1FB001B0228F5D9C6
:1032D000032035E0002033E0002031E0012B31D025
:1032E0001F4B5B6803F48001E26991422CD103F02B
:1032F0003F02216A8A4229D1616A47F6C0721A40A8
:10330000B2EB811F24D103F44031A26A5208013A82
:10331000B1EB024F1ED103F07062E16AB2EB016FB4
:103320001AD103F0E043226BB3EB027F16D10020E9
:1033300006E001207047012002E0012000E00020AB
:1033400002B070BD0120FBE70120F9E70120F7E79B
:103350000120F5E70120F3E70120F1E70120EFE785
:10336000003802406000474200230F2B00F2BF806C
:10337000F0B482B05DE086685F000324BC4026EABA
:103380000406CC68BC4034438460466826EA0206E2
:103390004C68C4F300129A403243426057E0DC08A4
:1033A000083450F8247003F0070296000F22B24050
:1033B00027EA02070A69B2403A4340F824205AE05B
:1033C000022200E00022B2403A430234484E46F85E
:1033D0002420484A9468EA4324EA05064F6817F413
:1033E000801F01D045EA0406424CA660E46802EA68
:1033F00004064F6817F4001F01D045EA04063D4C4F
:10340000E660646802EA04064F6817F4003F01D0E2
:1034100045EA0406374C6660246822404E6816F47C
:10342000803F01D045EA0402324C226001330F2B69
:103430005AD801229A400C6804EA020532EA0404D0
:10344000F4D14C6804F00304013C012C93D94A6880
:1034500002F00302032A09D0C4685E000322B240CE
:1034600024EA02048A68B2402243C2604A6802F039
:103470000302022A93D004685E000322B24024EAC9
:1034800002044A6802F00302B240224302604A6822
:1034900012F4403FCAD000220192174A546C44F4FF
:1034A00080445464526C02F480420192019A9C0858
:1034B000A61C0F4A52F8267003F0030296000F2252
:1034C000B24027EA02070D4A90423FF47BAF02F573
:1034D0008062904206D002F5806290423FF470AF65
:1034E000072270E701226EE702B0F0BC7047704718
:1034F00000380140003C014000380240000002401A
:103500000AB18161704709048161704730B4056870
:103510002C6824F480242C60046863608368402B4A
:1035200005D0036899600368DA6030BC70470368AF
:103530009A600368D960F8E710B40368D9B210390B
:103540000C4AA2FB014212090B4CA25CC2655F2926
:1035500009D923F47F7323F0030304338365806D5B
:103560005DF8044B704723F47F7323F003038365F6
:10357000F5E700BFABAAAAAA58580008836A826977
:1035800092B9012B0AD0022B02D00BB10020704758
:10359000C36A13F0807F28D100207047C36AB3F15B
:1035A000C07F24D000207047B2F5005F09D0022B05
:1035B00025D9032B25D1C36A13F0807F23D10020A6
:1035C0007047032B03D8DFE803F01404140A00202B
:1035D0007047C36A13F0807F0DD100207047C36A23
:1035E000B3F1C07F09D0002070470120704701204F
:1035F000704701207047012070470120704701206B
:1036000070470020704701207047000070B50446E5
:1036100000F03CFA002C5BD00546022384F83530DC
:10362000002384F834302268136823F00103136008
:1036300023681A6812F0010F0AD000F027FA431B22
:10364000052BF5D920236365032084F8350070BD70
:103650001A68204810406168A2680A43E1680A437A
:1036600021690A4361690A43A1690A43E1690A437E
:10367000216A0A430243616A04291ED01A6026683F
:10368000756925F00705636A1D43042B07D1A36AFA
:103690001D43E36A1BB12046FFF770FF90B97561C7
:1036A0002046FFF749FFE26D3F23934083600020EF
:1036B0006065012384F83530C9E7E16A206B014376
:1036C0000A43DBE740236365012084F83500BEE749
:1036D0000120BCE73F8010F038B50446856D90F8B6
:1036E000340001282BD0012084F8340094F83500F0
:1036F000C0B2012804D0002384F83430022038BD41
:10370000022084F83500002060652046FFF7FEFEA9
:10371000E26D3F239340AB602268136843F01603C9
:103720001360236C23B12268136843F0080313600D
:103730002268136843F0010313600020DFE70220D2
:10374000DDE70000F0B583B0044600230193724B1F
:103750001D68724BA3FB0535AD0A876D3E68C26DCF
:1037600008239340334210D003681A6812F0040F04
:103770000BD01A6822F004021A60C26D082393402D
:10378000BB60436D43F001034365E26D0123934049
:10379000334209D02268526912F0800F04D0BB6016
:1037A000636D43F002036365E26D0423934033428B
:1037B00009D02268126812F0020F04D0BB60636D5A
:1037C00043F004036365E26D10239340334224D039
:1037D0002268126812F0080F1FD0BB6023681A68B5
:1037E00012F4802F0DD01B6813F4002F04D1236C2A
:1037F0009BB12046984710E0A36C73B120469847D0
:103800000BE01A6812F4807F03D11A6822F00802D4
:103810001A60236C0BB120469847E26D2023934039
:10382000334255D02268126812F0100F50D0BB609E
:1038300094F83530DBB2052B0ED023681A6812F4E9
:10384000802F33D01B6813F4002F2AD1636C002B18
:103850003ED0204698473BE02268136823F01603C9
:1038600013602268536923F080035361236CA3B172
:103870002268136823F008031360E26D3F2393402E
:10388000BB60012384F83530002384F83430236D85
:10389000002B3FD0204698473CE0A36C002BE7D19B
:1038A000EBE7E36BA3B12046984711E01A6812F4E6
:1038B000807F09D11A6822F010021A60012384F86F
:1038C0003530002384F83430E36B0BB12046984741
:1038D000636DFBB1636D13F0010F17D0052384F8FE
:1038E00035302268136823F001031360019B013314
:1038F0000193AB4204D823681B6813F0010FF5D184
:10390000012384F83530002384F83430E36C0BB1A4
:103910002046984703B0F0BD6C000020B5814E1BD7
:10392000074AD36823F4E0631B041B0C000200F475
:10393000E060034343F0BF6343F40033D360704758
:1039400000ED00E030B4174BDB68C3F30223C3F192
:103950000704042C28BF04241D1D062D18D9033B81
:103960004FF0FF3505FA04F421EA0401994005FA05
:1039700003F322EA0303194300280BDB0901C9B250
:1039800000F1604000F5614080F8001330BC7047E2
:103990000023E5E700F00F000901C9B2024B1954FA
:1039A000F4E700BF00ED00E014ED00E0002807DBC5
:1039B00000F01F02400901239340024A42F82030E0
:1039C000704700BF00E100E00138B0F1807F0AD20B
:1039D000064B5860064AF02182F8231000209860B8
:1039E00007221A6070470120704700BF10E000E016
:1039F00000ED00E010B504460E4B18784FF47A73D2
:103A0000B3FBF0F30C4A1068B0FBF3F0FFF7DCFFF8
:103A100068B90F2C01D901200AE0002221464FF09D
:103A2000FF30FFF78FFF054B1C60002000E00120F6
:103A300010BD00BF640000206C0000206800002062
:103A400008B50B4B1A6842F400721A601A6842F407
:103A500080621A601A6842F480721A600320FFF7CD
:103A60005FFF0F20FFF7C6FFFEF780FB002008BDB9
:103A7000003C0240034A1168034B1B780B4413605F
:103A8000704700BF9800002064000020014B1868B8
:103A9000704700BF9800002038B50446FFF7F6FFD6
:103AA0000546B4F1FF3F02D0044B1B781C44FFF7DE
:103AB000EDFF401BA042FAD338BD00BF64000020D8
:103AC000034AD2F8883043F47003C2F88830704754
:103AD00000ED00E04A4B5A6822F440325A605A68BE
:103AE00041680A435A600268536823F48073536044
:103AF00002685368016943EA01235360026853680E
:103B000023F0407353600268536881680B4353602D
:103B10000268936823F40063936002689368C16845
:103B20000B439360826A374B9A4257D0026893687E
:103B300023F07063936002689368816A0B4393601B
:103B40000268936823F04053936002689368C16AE7
:103B50000B4393600268936823F00203936002684A
:103B60009368017E43EA4103936090F82030002B74
:103B70003FD00268536843F400635360026853689F
:103B800023F46043536001684B68426A013A43EA98
:103B900042334B600268D36A23F47003D362016836
:103BA000CB6AC269013A43EA0253CB620268936866
:103BB00023F4007393600268936890F8301043EA2E
:103BC000412393600268936823F4806393600268E2
:103BD0009368416943EA8123936070470268936860
:103BE00023F0706393600268936823F040539360FE
:103BF000B0E70268536823F400635360CAE700BF6C
:103C0000002301400100000F38B310B50446036CD7
:103C100043B1236C13F0100F0BD00120002384F864
:103C20003C3010BD00F0B0FE0023636484F83C30EB
:103C3000EFE7236C23F4885323F0020343F00203DD
:103C400023642046FFF746FF00206064236C23F0C6
:103C5000030343F001032364E0E701207047000001
:103C600010B582B013460022019290F83C20012A40
:103C700000F094800446012280F83C20026890689D
:103C800010F0010F13D1906840F001009060464A97
:103C90001068464AA2FB0020800C00EB4000019017
:103CA00002E001980138019001980028F9D12268BA
:103CB000906810F4807F03D0906820F4807090604A
:103CC0002268906810F0010F5DD0206C20F4E06055
:103CD00020F0010040F480702064526812F4806F7C
:103CE00005D0226C22F4405242F480522264226CAD
:103CF00012F4805F34D0626C22F00602626400220B
:103D000084F83C20A26B2A48D063A26B2948106437
:103D1000A26B2948D06422686FF0220010602068EE
:103D2000426842F0806242602068826842F4807299
:103D3000826020680A4600F14C01A06BFFF7CCFCC2
:103D40001E4B5B6813F01F0F0DD123689A6812F0A9
:103D5000405F25D19A6842F080429A6000201BE0C3
:103D600000226264CBE72368154A934201D0002009
:103D700012E09A6812F0405F14D19A6842F08042D3
:103D80009A60002008E0236C43F010032364636C06
:103D900043F001036364002002B010BD0220FBE782
:103DA0000020F9E70020F7E76C00002083DE1B43CA
:103DB000EB3D0008C93D0008D53D00080023014047
:103DC000002001407047704708B5806BFFF7FBFF8C
:103DD00008BD704708B5806B40230364436C43F013
:103DE00004034364FFF7F5FF08BD08B50346806B85
:103DF000026C12F0500F25D1036C43F4007303647E
:103E000003689A6812F0405F19D1027EBAB9DA6A83
:103E100012F4700F03D09A6812F4806F0FD15A68B1
:103E200022F020025A60036C23F480730364036C55
:103E300013F4805F03D1036C43F001030364FFF7C5
:103E4000C1FF08BD026C12F0100F04D1826BD26C5E
:103E500018469047F5E7FFF7BCFFF2E730B482B0B1
:103E60000023019390F83C30012B00F0B780012330
:103E700080F83C300B68092B3ED90568EA689BB294
:103E800003EB43031E3B072404FA03F322EA030374
:103E9000EB600568EA688C680B8803EB43031E3B04
:103EA00004FA03F31343EB604B68062B3AD805681A
:103EB0006A6B03EB8303053B1F2404FA03F322EA36
:103EC00003036B6305686A6B4B6803EB8303053B75
:103ED0000C8804FA03F313436B630268404B9A4265
:103EE00050D002683E4B9A4255D0002380F83C30B7
:103EF000184602B030BC704705682A699BB203EBD4
:103F00004303072404FA03F322EA03032B61056841
:103F10002A698C680B8803EB430304FA03F3134309
:103F20002B61C1E70C2B16D805682A6B03EB8303C2
:103F3000233B1F2404FA03F322EA03032B630568DF
:103F40002A6B4B6803EB8303233B0C8804FA03F3CF
:103F500013432B63C1E70568EA6A03EB8303413B24
:103F60001F2404FA03F322EA0303EB620568EA6AFA
:103F70004B6803EB8303413B0C8804FA03F31343C0
:103F8000EB62AAE70B68122BABD1164A536843F4D5
:103F900080035360A5E70B68103B012BA5D8114A9D
:103FA000536843F4000353600B68102B9DD10E4BF4
:103FB0001B6802F1467202F52E3202F28332A2FB36
:103FC00003239B0C03EB83035B00019302E0019B43
:103FD000013B0193019B002BF9D186E7022088E782
:103FE00000200140002301406C0000202DE9F04733
:103FF00082B00546884617461E46FFF747FD0A9BD6
:104000001B1A03EB0609FFF741FD82462A4B1B688A
:10401000C3F3CB3309FB03F301932B689C6838EAA5
:1040200004030CBF01240024BC4240D0B6F1FF3F82
:10403000F3D0FFF72BFDA0EB0A0048450AD2B9F1F7
:10404000000F07D0019A02B14A46019B013B019340
:104050009146E2E72A68536823F0E00353606B68F7
:10406000B3F5827F0BD0AB6AB3F5005F14D00123A8
:1040700085F85130002385F85030032018E0AB68F4
:10408000B3F5004F02D0B3F5806FECD12A68136806
:1040900023F040031360E6E72A68136823F4005313
:1040A00013602A68136843F400531360DFE70020AD
:1040B00002B0BDE8F08700BF6C00002030B585B0CD
:1040C0000446164B1868164BA3FB0030400D4FF406
:1040D0007A7505FB00F003906368B3F5827F0BD01F
:1040E000039BBBB1039B013B039323689B6813F0C5
:1040F000800FF5D100200EE000920B4600228021B7
:104100002046FFF773FF30B1636D43F02003636512
:10411000032000E0002005B030BD00BF6C0000208F
:10412000819F5E1610B582B004460B464168B1F51A
:10413000827F14D06168B1F5827F2AD1A168B1F580
:10414000806F19D00092002280212046FFF74EFF99
:1041500030B3636D43F020036365032020E0816882
:10416000B1F5004F02D0B1F5806FE3D1206801684E
:1041700021F040010160DDE700920022012120468C
:10418000FFF734FF60B1636D43F0200363650320E4
:1041900006E00092002201212046FFF727FF08B920
:1041A00002B010BD636D43F0200363650320F7E7A1
:1041B00000285AD010B50446436A33B94368B3F5B2
:1041C000827F05D00023C36102E0002303614361C5
:1041D0000023A36294F85130002B40D0022384F8CE
:1041E00051302268136823F040031360636803F4BE
:1041F0008273A26802F404421343E26802F400628C
:104200001343226902F002021343626902F00102C1
:104210001343A26902F400721343E26902F0380208
:104220001343226A02F080021343A26A02F400528E
:10423000216813430B60638B03F00403626A02F08E
:104240001002216813434B602268D36923F4006392
:10425000D36100206065012384F8513010BD84F8DB
:104260005030204600F05AFCB8E7012070472DE995
:10427000F04383B01D4690F85030012B00F0CC8005
:10428000044688469146012380F85030FFF7FEFB34
:10429000074694F85160F6B2012E40F0AA80B8F1BA
:1042A000000F00F0A780B9F1000F00F0A3800323F6
:1042B00084F8513000236365C4F83080A4F834904A
:1042C000A4F83690A363A387E38763642364A36899
:1042D000B3F5004F1ED023681A6812F0400F03D1C7
:1042E0001A6842F040021A60E368B3F5006F1CD010
:1042F000636813B1B9F1010F52D1226B23681278B0
:104300001A73236B01332363E38E9BB2013B9BB291
:10431000E38645E02268136823F0400313602268B7
:10432000136843F480431360D5E7636813B1B9F1B0
:10433000010F16D1226B23681288DA60236B0233D7
:104340002363E38E9BB2013B9BB2E38609E0FFF758
:104350009DFBC01BA84202D3B5F1FF3F54D1002DF5
:1043600054D0E38E9BB2002B2ED023689A6812F0B3
:10437000020FECD0226B1288DA60236B02332363C6
:10438000E38E9BB2013B9BB2E386EAE7FFF77EFB3D
:10439000C01BA84202D3B5F1FF3F39D1002D39D05F
:1043A000E38E9BB283B123689A6812F0020FEDD0BE
:1043B000226B12781A73236B01332363E28E92B25D
:1043C000013A92B2E286EBE73A4629462046FFF7E9
:1043D00075FE08B120236365A36833B90193236890
:1043E000DA6801929B680193019B636D13B9002603
:1043F00000E00226012384F85130002384F8503075
:10440000304603B0BDE8F0830326F3E70326F1E767
:104410000326EFE70326EDE70226F1E72DE9F04357
:1044200083B01F460A9D90F85030012B00F0108198
:10443000044688469146012380F85030FFF726FB5A
:10444000064694F85130DBB26268012B0AD0B2F50F
:10445000827F40F0E380A268002A40F0E980042BCC
:1044600040F0E880B8F1000F00F0E680B9F1000FED
:1044700000F0E480002F00F0E38094F85130DBB2CC
:10448000042B02D0052384F8513000236365C4F85F
:104490003890E787A787C4F83080E786A78623642B
:1044A000636423681A6812F0400F03D11A6842F05F
:1044B00040021A60E368B3F5006F11D063680BB176
:1044C000012F0BD1226B236812781A73236B0133EF
:1044D0002363E38E9BB2013B9BB2E38601276BE033
:1044E00063680BB1012F0BD1226B23681288DA604D
:1044F000236B02332363E38E9BB2013B9BB2E386C3
:1045000001271CE023689A6812F0010F0ED0E28F99
:1045100092B25AB1DA68A36B1A80A36B0233A36319
:10452000E38F9BB2013B9BB2E3870127FFF7AEFA13
:10453000801BA84203D3B5F1FF3F40F08380E38E98
:104540009BB21BB9E38F9BB2002B53D023689A68B0
:1045500012F0020FD6D0E28E92B2002AD2D0002FF3
:10456000D0D0226B1288DA60236B02332363E38E90
:104570009BB2013B9BB2E3860027C3E723689A689E
:1045800012F0010F0ED0E28F92B25AB1DA68A36B2B
:104590001A70A36B0133A363E38F9BB2013B9BB201
:1045A000E3870127FFF772FA831BAB4202D3B5F111
:1045B000FF3F49D1002D49D0E38E9BB213B9E38F61
:1045C0009BB2BBB123689A6812F0020FD6D0E28E7C
:1045D00092B2002AD2D0002FD0D0226B12781A7358
:1045E000236B01332363E38E9BB2013B9BB2E386D3
:1045F0000027C3E7324629462046FFF75FFD48B94A
:10460000A36863B901932368DA6801929B680193F8
:10461000019B04E020236365012000E002200123C8
:1046200084F85130002384F8503003B0BDE8F083A3
:104630000220F4E70220F2E70120F0E70120EEE794
:104640000120ECE70320EAE70320E8E70320E6E7A0
:104650000220EAE72DE9F04383B0044688469146FC
:104660001D464368B3F5827F38D094F85030012B53
:1046700000F0A880012384F85030FFF707FA0746BE
:1046800094F85160F6B2012E40F08980B8F1000F25
:1046900000F08680B9F1000F00F08280042384F8D6
:1046A000513000236365C4F83880A4F83C90A4F826
:1046B0003E902363A386E38623646364A368B3F513
:1046C000004F18D023681A6812F0400F03D11A68FF
:1046D00042F040021A60E36813B340E08368002BA5
:1046E000C3D1042380F85130009513460A46FFF7E2
:1046F00095FE06465AE02268136823F040031360D3
:104700002268136823F480431360DBE7FFF7BEF9E8
:10471000C01BA84202D3B5F1FF3F4BD1002D4BD0B7
:10472000E38F9BB2002B2ED023689A6812F0010F02
:10473000ECD0A26B1B7B1370A36B0133A363E38FDD
:104740009BB2013B9BB2E387EAE7FFF79FF9C01BEF
:10475000A84202D3B5F1FF3F30D1002D30D0E38F16
:104760009BB283B123689A6812F0010FEDD0DA682A
:10477000A36B1A80A36B0233A363E28F92B2013A58
:1047800092B2E287EBE73A4629462046FFF7CAFC99
:1047900008B120236365636D13B9002600E002268B
:1047A000012384F85130002384F85030304603B0A0
:1047B000BDE8F0830326F3E70326F1E70326EFE7DE
:1047C0000326EDE70226F1E72DE9F04188B0002449
:1047D0000394049405940694079400942F4B1A6B49
:1047E00042F004021A631A6B02F004020092009A6B
:1047F00001941A6B42F001021A631A6B02F0010273
:104800000192019A02941A6B42F002021A631B6B26
:1048100003F002030293029BDFF88C8022464FF4E0
:1048200060414046FEF76CFE1D4F224641F60201F4
:104830003846FEF765FE1B4D224640F2022128460F
:10484000FEF75EFE4FF46043039301260496059441
:10485000069403A94046FEF787FD41F60203039341
:1048600004960594069403A93846FEF77DFD40F2B0
:104870000223039304960594069403A92846FEF7A1
:1048800073FD042303934FF488130493059403A941
:104890002846FEF769FD08B0BDE8F0810038024007
:1048A00000000240000402400008024000B585B04C
:1048B000002300930193029303933048304A02602F
:1048C0004FF480324260836001220261027680F8F8
:1048D0002030C3622B498162C3600523C36180F825
:1048E00030204261FFF790F9002834D10223009371
:1048F000012301930323029369462048FFF7AEFA90
:1049000060BB032300930223019369461B48FFF712
:10491000A5FA30BB0423009303230193694617488B
:10492000FFF79CFA00BB0523009304230193029335
:1049300069461248FFF792FAC8B908230093052385
:1049400001930323029369460C48FFF787FA88B95D
:1049500005B05DF804FBFDF723FBC7E7FDF720FB7F
:10496000CFE7FDF71DFBD5E7FDF71AFBDBE7FDF70A
:1049700017FBE2E7FDF714FBEAE700BF9C0000200D
:10498000002001400100000F70B588B000230393A0
:104990000493059306930793026803F1804303F59C
:1049A00090339A4201D008B070BD044600250095AE
:1049B00003F58C335A6C42F480725A645A6C02F4D8
:1049C00080720092009A01951A6B42F001021A63FC
:1049D0001A6B02F001020192019A02951A6B42F0E1
:1049E00002021A631B6B03F002030293029B3C2337
:1049F000039303260496059503A91448FEF7B4FC17
:104A0000012303930496059503A91148FEF7ACFC16
:104A10001048114B036045608560C5604FF48063AA
:104A200003614FF4006343614FF4005383614FF41B
:104A30008073C36105624562FEF7E8FD18B9054B56
:104A4000A3639C63AFE7FDF7ABFAF8E70000024011
:104A500000040240E40000201064024000B583B06E
:104A600000210191094B1A6B42F480021A631B6BFF
:104A700003F480030193019B0A463820FEF762FF8E
:104A80003820FEF793FF03B05DF804FB00380240C6
:104A900008B50F480F4B03604FF482734360002347
:104AA0008360C36002220261012242614FF40072FE
:104AB00082612022C2610362436283620A23C3626D
:104AC000FFF776FB00B908BDFDF76AFAFBE700BF08
:104AD000440100200038004008B50E480E4B03602A
:104AE0004FF48273436000238360C360036101223B
:104AF00042614FF4007282612022C261036243620C
:104B000083620A23C362FFF753FB00B908BDFDF7B8
:104B100047FAFBE79C010020003C0040F0B58BB059
:104B200000230593069307930893099303682F4A7C
:104B3000934204D02E4A934226D00BB0F0BD0022FF
:104B400001922C4B196C41F480411964196C01F4E9
:104B50008041019101990292196B41F002011963A0
:104B60001B6B03F002030293029B4FF44443059333
:104B7000022306930792032308930523099305A9AB
:104B80001D48FEF7F1FBD8E700240394194B1A6C7B
:104B900042F400421A641A6C02F400420392039A2F
:104BA00004941A6B42F002021A631B6B03F00203B7
:104BB0000493049B4FF480530593022706970794B0
:104BC00003260896072309930B4D05A92846FEF7EF
:104BD000CBFB302305930697079408960623099389
:104BE00005A92846FEF7C0FBA7E700BF0038004034
:104BF000003C0040003802400004024000B58DB087
:104C00000023019302931448144A026043608360B6
:104C10004FF6FF72C2600361836101220392049325
:104C2000059206930793089309920A930B9303A99D
:104C3000FDF764FC50B900230193029301A90648D3
:104C4000FDF7F8FF28B90DB05DF804FBFDF7A8F9F2
:104C5000F1E7FDF7A5F9F6E7CC02002000040040DB
:104C600000B58DB00023019302931448144A0260EA
:104C7000436083604FF6FF72C2600361836101226B
:104C800003920493059206930793089309920A935B
:104C90000B9303A9FDF732FC50B900230193029353
:104CA00001A90648FDF7C6FF28B90DB05DF804FB61
:104CB000FDF776F9F1E7FDF773F9F6E7F401002067
:104CC0000008004084B00368204A934215D0B3F135
:104CD000804F20D01E4A93422AD01E4A934218D1B8
:104CE000002303931C4B5A6C42F400325A645B6CF1
:104CF00003F400330393039B0BE000230093164B54
:104D00005A6C42F001025A645B6C03F00103009399
:104D1000009B04B07047002301930F4B1A6C42F0C4
:104D200001021A641B6C03F001030193019BF0E77D
:104D300000230293084B1A6C42F008021A641B6CA1
:104D400003F008030293029BE3E700BF0000014069
:104D5000000C0040004401400038024000B58BB018
:104D60000023059306930793089309930368264A43
:104D7000934205D0254A934224D00BB05DF804FB42
:104D800000220192224B196C41F002011964196C46
:104D900001F00201019101990292196B41F00101A8
:104DA00019631B6B03F001030293029BC02305935D
:104DB0000223069307920892099305A91548FEF766
:104DC000D3FADAE700220392114B196C41F0040187
:104DD0001964196C01F00401039103990492196B91
:104DE00041F0020119631B6B03F002030493049B5F
:104DF000C02305930223069307920892099305A9FD
:104E00000548FEF7B1FAB8E700040040000800408A
:104E100000380240000002400004024070B58AB031
:104E20000023059306930793089309930368454A63
:104E300093420AD0B3F1804F36D0434A93424DD0CB
:104E4000424A934263D00AB070BD00240094404BA4
:104E50001A6B42F002021A631A6B02F0020200920D
:104E6000009A01941A6B42F001021A631B6B03F063
:104E700001030193019B4FF400530593022606960C
:104E8000079408940125099505A93248FEF76CFAA4
:104E90004FF480730593069607940894099505A925
:104EA0002D48FEF761FACEE700230293284A116BE2
:104EB00041F001011163126B02F001020292029AA9
:104EC0004FF40042059202220692079308930123B1
:104ED000099305A92048FEF747FAB4E70023039396
:104EE00002F50B32116B41F001011163126B02F0FC
:104EF00001020392039A012205920222069207936D
:104F00000893099205A91448FEF72EFA9BE700239F
:104F1000049302F57442116B41F002011163126BAC
:104F200002F002020492049A4FF480720592022267
:104F30000692079308930323099305A90548FEF7F2
:104F400013FA80E700000140000C004000440140DB
:104F500000380240000402400000024010B596B044
:104F60000024129413941494159410941194099499
:104F70000A940B940C940D940E940F9420222146C5
:104F800001A8FBF78DF92D482D4B036004234360E6
:104F9000846040F2CF73C360046144618461FDF7B3
:104FA00029FA002838D14FF48053129312A92348CC
:104FB000FDF7DDFB002832D12048FDF747FA002835
:104FC00030D100231093119310A91C48FDF732FE35
:104FD00058BB0022099240F2E7330A930B920C92DD
:104FE0000D920E920F9209A91448FDF717FBF8B91C
:104FF0000023019302930393049305934FF400520B
:105000000692089301A90D48FDF758FE98B90B4880
:10501000FFF704FF16B010BDFCF7C2FFC3E7FCF7B3
:10502000BFFFC9E7FCF7BCFFCBE7FCF7B9FFD0E750
:10503000FCF7B6FFDCE7FCF7B3FFE8E7140300205A
:105040000000014000B58FB000230A930B930C932E
:105050000D9308930993019302930393049305938B
:105060000693079320484FF08042026043608360BC
:105070004FF0FF32C26003618361FDF7BBF920BBD3
:105080004FF480530A930AA91748FDF770FBF8B94B
:105090001548FDF707FAF0B900230893099308A90A
:1050A0001148FDF7C7FDC8B96023019300220292A1
:1050B0000392059201A90C48FDF7DFFA88B90A4866
:1050C000FFF7ACFE0FB05DF804FBFCF769FFD7E714
:1050D000FCF766FFDCE7FCF763FFDDE7FCF760FF4A
:1050E000E2E7FCF75DFFEAE75C03002000B58FB064
:1050F00000230A930B930C930D9308930993019348
:105100000293039304930593069307932048214A3F
:105110000260436083604FF0FF32C26003618361CD
:10512000FDF768F920BB4FF480530A930AA9184889
:10513000FDF71DFBF8B91648FDF7B4F9F0B90023E7
:105140000893099308A91248FDF774FDC8B96023B4
:105150000193002202920392059201A90C48FDF7E7
:105160008CFA88B90A48FFF759FE0FB05DF804FBC6
:10517000FCF716FFD7E7FCF713FFDCE7FCF710FF9F
:10518000DDE7FCF70DFFE2E7FCF70AFFEAE700BF07
:1051900084020020000C004000B589B00023019378
:1051A0000293039304930593069307931548164AB5
:1051B0000260436083604FF6FF72C26003618361E7
:1051C000FDF718F9A0B90F48FDF76CF998B96023FD
:1051D0000193002202920392059201A90948FDF76A
:1051E0004CFA58B90748FFF719FE09B05DF804FBFF
:1051F000FCF7D6FEE7E7FCF7D3FEE8E7FCF7D0FEC6
:10520000F0E700BF3C0200200044014008B50A4816
:105210000A4B03604FF4E133436000238360C360B3
:1052200003610C2242618361C36100F0D1F800B9CF
:1052300008BDFCF7B5FEFBE7A40300200010014009
:1052400000B589B000230393049305930693079355
:10525000026803F1804303F588339A4202D009B013
:105260005DF804FB0022019203F59433596C41F080
:1052700010015964596C01F01001019101990292D9
:10528000196B41F0010119631B6B03F001030293D9
:10529000029B4FF4C06303930223049305920323FC
:1052A00006930723079303A90148FEF75DF8D6E7A5
:1052B0000000024070B504460268136923F44053AD
:1052C000C1680B4313618368026913434269134346
:1052D000C2691A430168CB6823F4164323F00C0318
:1052E0001343CB600268536923F4407381690B4315
:1052F00053610368344A934206D002F580629342B8
:1053000002D0FDF70BFE01E0FDF718FEE369B3F5EF
:10531000004F2AD00026051846EB06012D1846EB53
:105320000101CB0043EA5573EA001546194663684C
:105330009A009B0F281846EB0101FCF791FC234DC6
:10534000A5FB00325109642303FB11031B01323317
:10535000A5FB03235B0903F0F00202EB011203F04B
:105360000F03216813448B6070BD0026051846EBBF
:1053700006012D1846EB0101CB0043EA5573EA0004
:105380001546194662683346921846EB03032818FF
:1053900046EB0101FCF764FC0C4DA5FB0032510902
:1053A000642303FB1103DB003233A5FB03235B09FA
:1053B0005A0002F4F87202EB011203F007032168AD
:1053C00013448B60D0E700BF001001401F85EB51F4
:1053D00058B310B5044690F83D300BB3242384F83D
:1053E0003D302268D36823F40053D3602046FFF792
:1053F00061FF2268136923F49043136122685369A3
:1054000023F02A0353612268D36843F40053D36026
:1054100000202064202384F83D3084F83E3010BD05
:1054200080F83C30FFF70CFFD8E701207047000000
:1054300030B585B08DF8071000F07F008DF80F00B3
:105440000D4C002202212046FEF75AF80B4D642332
:1054500001220DF10F012846FEF709FF6423012206
:105460000DF107012846FEF702FF01220221204626
:10547000FEF746F805B030BD0004024044010020AC
:1054800030B583B080238DF806301D4C00220221F8
:105490002046FEF735F81B4D642301220DF106016D
:1054A0002846FEF7E4FE642301220DF10701284699
:1054B000FFF7D0F8012202212046FEF721F89DF8DF
:1054C0000730E02B02D0012003B030BD01210620BF
:1054D000FFF7AEFF10210320FFF7AAFF20217F2056
:1054E000FFF7A6FF17210120FFF7A2FF17211420C5
:1054F000FFF79EFF00217F20FFF79AFFE3E700BF41
:10550000000402404401002070B582B0B3238DF83E
:1055100006305F4C002202212046FDF7F1FF5D4D71
:10552000642301220DF106012846FEF7A0FE642344
:1055300001220DF107012846FFF78CF80122022114
:105540002046FDF7DDFF9DF807301E02B4238DF8DD
:105550000630002202212046FDF7D2FF64230122FB
:105560000DF106012846FEF782FE642301220DF1AB
:1055700007012846FFF76EF8012202212046FDF7B9
:10558000BFFF9DF8073033431BB2434A1380B52356
:105590008DF80630002202212046FDF7B1FF64237A
:1055A00001220DF106012846FEF761FE6423012267
:1055B0000DF107012846FFF74DF801220221204690
:1055C000FDF79EFF9DF807301E02B6238DF80630CA
:1055D000002202212046FDF793FF642301220DF1F2
:1055E00006012846FEF743FE642301220DF1070160
:1055F0002846FFF72FF8012202212046FDF780FF01
:105600009DF8073033431BB2244A1380B7238DF82B
:105610000630002202212046FDF772FF642301229A
:105620000DF106012846FEF722FE642301220DF14A
:1056300007012846FFF70EF8012202212046FDF758
:105640005FFF9DF807301E02B8238DF80630002258
:1056500002212046FDF754FF642301220DF10601CB
:105660002846FEF704FE642301220DF107012846B7
:10567000FEF7F0FF012202212046FDF741FF9DF8D1
:10568000073033431BB2064A138002B070BD00BF1F
:105690000004024044010020F0030020EE0300203B
:1056A000E803002008B500210B48FDF797F950B931
:1056B00000210A48FDF792F940B900210848FDF79A
:1056C0008DF930B908BDFCF76BFCF1E7FCF768FC1D
:1056D000F3E7FCF765FCF5E75C030020840200209B
:1056E0003C02002038B50C46051E16DC002D1BDBE5
:1056F000002C21DC002C25DBB5F5C86F01DD4FF453
:10570000C865B4F5C86F01DD4FF4C864114B1B6860
:105710005D63114B1B685C6338BD01224FF48051FF
:105720000E48FDF7EDFEE3E700224FF480510B48F1
:10573000FDF7E6FE6D42DBE7012202210748FDF797
:10574000DFFED9E7002202210448FDF7D9FE6442BA
:10575000D2E700BF5C03002084020020000002406A
:10576000DFF834D00D480E490E4A002302E0D45829
:10577000C4500433C4188C42F9D30B4A0B4C002399
:1057800001E013600432A242FBD3FEF799F9FAF765
:1057900063FDFCF757FC7047000004200000002068
:1057A00070000020C458000870000020F80300209A
:1057B000FEE70000F8B500BFF8BC08BC9E46704785
:0C57C000F8B500BFF8BC08BC9E4670475E
:1057CC0004000020000000000000000000000000A9
:1057DC0000000000000000000000000000000000BD
:1057EC0000000000000000000000000000000000AD
:1057FC00000000000000000000000000000000009D
:10580C00000000000000000000000000000000008C
:10581C00000000000000000000000000000000007C
:10582C00000000004F4B0D006E6F6D7573616E0DB7
:10583C0000000000256420002C25640D0A000000E7
:10584C00256C642C20256C640D0A000000061016D3
:10585C000006101600000000000000000102030406
:10586C00060708090000000001020304232D302B59
:10587C0020000000686C4C006566674546470000D8
:10588C00303132333435363738394142434445466A
:10589C00000000003031323334353637383961622C
:0858AC00636465660000000062
:0858B400DCC3FF7F01000000CE
:0458BC0039020008A5
:0458C00011020008C9
:1058C400040000200000000010580008F0570008F1
:1058D400D057000800000000000000000000000095
:1058E40000000000000000000000000000000000B4
:1058F40000000000000000000000000000000000A4
:105904000000000000000000000000000000000093
:105914000000000000000000000000000000000083
:105924000000000001000000100000000024F4004A
:040000050800576137
:00000001FF
